:020000040800F2
:100000006806002005010008A52D0008AF230008A0
:10001000A12D0008F90100081D35000800000000AE
:10002000000000000000000000000000392E000861
:10003000FD010008000000000D2E00083B2E000806
:100040001F0100081F0100081F0100081F01000810
:100050001F0100081F0100081F0100081F01000800
:100060001F0100081F0100081F0100081F010008F0
:100070001F0100081F0100081F0100081F010008E0
:100080001F0100081F0100081F0100081F010008D0
:100090001F0100081F0100081F010008FF010008E0
:1000A0001F010008C92E00081F0100081F010008D9
:1000B0001F0100081F0100081F0100081F010008A0
:1000C0001F0100081F0100081F0100081F01000890
:1000D0001F0100080D3500081F0100081F0100085E
:1000E0001F0100081F0100081F010008DFF810D0E1
:1000F00000F042F800480047F9380008AFF30080EC
:10010000680600200648804706480047FEE7FEE7ED
:10011000FEE7FEE7FEE7FEE7FEE7FEE7FEE7FEE7B7
:10012000C72E0008ED000008D2B201E000F8012B54
:10013000491EFBD270470022F6E710B513460A4667
:1001400004461946FFF7F0FF204610BD30B50B46B8
:10015000014600202022012409E021FA02F59D42F7
:1001600005D303FA02F5491B04FA02F52844151ECB
:10017000A2F10102F1DC30BD064C074D06E0E0685B
:1001800040F0010394E8070098471034AC42F6D3DE
:10019000FFF7B0FFEC3900080C3A000870B50446D0
:1001A00000252068806800F0010018B3206880688E
:1001B00020F001002168886000F022FC054613E071
:1001C00000F01EFC401B02280ED92068806800F059
:1001D000010048B1A06A40F01000A062E06A40F05F
:1001E0000100E062012070BD2068806800F001001D
:1001F0000028E5D10020F6E700BFFEE7704710B504
:100200004FF4807000F050FA10BD72B600BFFEE7E8
:1002100038B5024600230020009000BF92F8240069
:10022000012801D1022038BD012082F8240000BF3E
:100230004868072812D21068406B0C79641E04EBE2
:1002400084051F24AC40A0430D796D1E05EB850588
:100250000C68AC4020431468606327E048680D28B0
:1002600012D21068006B0C79E41F04EB84051F2484
:10027000AC40A0430D79ED1F05EB85050C68AC4043
:1002800020431468206311E01068C06A0C790D3CAB
:1002900004EB84051F24AC40A0430D790D3D05EB14
:1002A00085050C68AC4020431468E06208680A28A1
:1002B00012D31068C0680C780A3C04EB440507248C
:1002C000AC40A0430D780A3D05EB45058C68AC4079
:1002D00020431468E0600FE0106800690C7804EBBC
:1002E00044050724AC40A0430D7805EB45058C6818
:1002F000AC402043146820610868102802D00868C8
:10030000112827D1174C1068A0421ED110688068B0
:1003100000F40000F0B91068806840F40000146830
:10032000A0600868102815D10F4800680F4CB0FB7A
:10033000F4F000EB80004000009002E00098401EC6
:10034000009000980028F9D104E0906A40F0200065
:100350009062012300BF002082F8240000BF1846ED
:1003600061E70000002401403400002040420F00FB
:100370002DE9F0410446002700250026A84614B9BF
:100380000120BDE8F081A06810B1207D00B100BF60
:10039000A06A30B90020E06284F82400204600F012
:1003A00089F82046FFF7FAFE0746A06A00F0100021
:1003B000002873D1002F71D1A06A20F4885040F03A
:1003C0000200A062E16960680843217B40EA4100C5
:1003D0000643A068B0F5807F02D0A068012802D152
:1003E0004FF4807000E000200543207D012811D1EA
:1003F000207B38B9A069401E4FF4006141EA4030CB
:10040000054307E0A06A40F02000A062E06A40F0E7
:100410000100E0622068406820F4694028432168B8
:10042000486020688068214908403043216888601E
:10043000A068B0F5807F02D0A068012802D14FF4F7
:10044000807000E00020B0F5807F03D1208A401E3C
:100450004FEA00582068C06A20F4700040EA0800A3
:100460002168C8622068806811490840B04208D1FC
:100470000020E062A06A20F0020040F00100A062CB
:1004800011E0A06A20F0020040F01000A062E06AD3
:1004900040F00100E062012705E0FFE7A06A40F0BC
:1004A0001000A062012738466BE70000FDF7E1FF6E
:1004B000FE0E1FFF10B586B0044600200290039088
:1004C0000490059014492068884222D100BF134847
:1004D000806940F40070114988610846806900F421
:1004E0000070019000BF00BF00BF0846806940F067
:1004F000040088610846806900F00400019000BF94
:1005000000BF102002900320039002A9044800F0CD
:10051000D9F806B010BD00000024014000100240D0
:10052000000801400146002291F82100022808D06D
:100530000420886300BF002081F8200000BF012054
:1005400070470868006820F00E000B6818600868A3
:10055000006820F001000B68186091F8403001201D
:100560009840CB6B5860012081F8210000BF00202B
:1005700081F8200000BF1046E2E7000070B5044695
:10058000002594F82100022803D00420A06301254F
:1005900048E02068006820F00E00216808602068AC
:1005A000006820F00100216808601F492068884227
:1005B00001D1012026E01C4914312068884201D174
:1005C00010201FE0184928312068884201D1801589
:1005D00018E015493C312068884201D1801411E0AF
:1005E000114950312068884202D14FF4803009E02F
:1005F0000D4964312068884202D14FF4801001E037
:100600004FF08070084908394860012084F82100C3
:1006100000BF002084F8200000BF606B10B12046AE
:10062000616B8847284670BD0800024070B50446DB
:1006300000F0E6F906462546681C10B1044800782B
:10064000054400BF00F0DCF9801BA842FAD370BD5E
:100650003000002010B50446B4F5807F19D10D4854
:100660000068B0F5FA6F0ADA0A480068401C0949C8
:100670000860094809490A68026089888180084839
:1006800002F018F8054802F039F84FF48070054977
:10069000086010BD000000201600002004000020AB
:1006A0000A0000201404014010B504460448006804
:1006B000204020B1024804602046FFF7CBFF10BD68
:1006C000140401402DE9F8470346002294466EE1E8
:1006D0004FF0010808FA02F4D1F8008008EA04009B
:1006E000A0427DD1DFF8DCA2D1F80480A8EB0A0992
:1006F000D0453AD014DCB8F1030F50D009DCB8F182
:10070000000F31D0B8F1010F1CD0B8F1020F49D160
:1007100020E0B8F1110F18D0B8F1120F42D11EE04D
:10072000B9F5881F25D006DCB9F5803F20D0B9F592
:10073000801F37D11AE0B9F5001F18D0B9F5041F92
:1007400030D117E0D1F80CC02DE0D1F80C8008F1C1
:10075000040C28E0D1F80C8008F1080C23E0D1F853
:100760000C8008F10C0C1EE000BF00BF00BF00BFF2
:1007700000BF00BFD1F80880B8F1000F02D14FF0E0
:10078000040C0BE0D1F80880B8F1010F03D14FF051
:10079000080C1C6102E04FF0080C5C6103E04FF0B4
:1007A000000C00E000BF00BFFF2801D8984601E020
:1007B00003F104084646FF2802D84FEA820803E006
:1007C000A2F108084FEA88084746D6F800804FF0A3
:1007D0000F0909FA07F928EA09080CFA07F900E0F5
:1007E00088E048EA0908C6F80080D1F8048008F0DB
:1007F0008058B8F1805F7DD100BFDFF8CC81D8F898
:10080000188048F00108DFF8C091C9F81880C84680
:10081000D8F8188008F00108CDF8008000BF00BFAC
:100820004FEAB9384FEA920958F829504FEA8278CE
:100830004FEA18794FF00F0808FA09F825EA080579
:10084000DFF88881434502D14FF0000816E0DFF859
:100850008081434502D14FF001080FE0DFF8748139
:10086000434502D14FF0020808E0DFF86C814345B0
:1008700002D14FF0030801E04FF004084FEA8279FB
:100880004FEA197908FA09F848EA0505DFF84C81BA
:100890004FEA920948F82950D1F8048008F48018EA
:1008A000B8F5801F0AD1DFF83881D8F8008048EA0F
:1008B0000008DFF82C91C9F8008009E0DFF82081FA
:1008C000D8F8008028EA0008DFF81491C9F8008001
:1008D000D1F8048008F40018B8F5001F10D1DFF833
:1008E000008108F10408D8F8008048EA0008DFF821
:1008F000F09000E05AE009F10409C9F800800DE029
:10090000DFF8DC8008F10408D8F8008028EA000845
:10091000DFF8CC9009F10409C9F80080D1F804800F
:1009200008F40038B8F5003F0ED1DFF8B480A8F124
:100930000408D8F8008048EA0008DFF8A490A9F17C
:100940000409C9F800800DE0DFF89480A8F10408DC
:10095000D8F8008028EA0008DFF88490A9F104099B
:10096000C9F80080D1F8048008F48038B8F5803FD9
:100970000ED1DFF86C80A8F10808D8F8008048EAAA
:100980000008DFF85C90A9F10809C9F800800DE0C3
:10099000DFF84C80A8F10808D8F8008028EA0008A1
:1009A000DFF83C90A9F10809C9F80080521CD1F881
:1009B000008028FA02F8B8F1000F7FF489AEBDE894
:1009C000F8870000000011100010024000080140EC
:1009D000000C0140001001400014014008000140DB
:1009E00008040140024693680B400BB1012000E06F
:1009F000002070470AB1016101E00B0403617047F8
:100A00000148006870470000280000200348006883
:100A1000034909780844014908607047280000200C
:100A20003000002010B50848006840F0100006496A
:100A30000860032000F0ACF8022000F007F800F096
:100A40002BF8002010BD00000020024070B50446C5
:100A50000E4800784FF47A71B1FBF0F00C49096848
:100A6000B1FBF0F5284600F095FC08B1012070BDFF
:100A7000102C07D200222146501E00F04BF80548EA
:100A8000046001E00120F2E70020F0E730000020E0
:100A9000340000202C00002008B500BF13488069F6
:100AA00040F00100114988610846806900F00100AA
:100AB000009000BF00BF00BF0846C06940F08050F2
:100AC000C8610846C06900F08050009000BF00BFB8
:100AD000052000F05DF800BF0549486820F0E0609F
:100AE00040F08070486000BF08BD00000010024068
:100AF0000000014001460846002809DB00F01F0302
:100B000001229A4043099B0003F1E023C3F800212E
:100B100000BF70472DE9F05F80460D46164600275E
:100B200002F00EFD074639462A46334601F007001B
:100B3000C0F1070ABAF1040F02D94FF0040A01E02C
:100B4000C0F1070AD14600F1040ABAF1070F02D238
:100B50004FF0000A01E0A0F1030AD4464FF0010A69
:100B60000AFA09FAAAF1010A0AEA020A0AFA0CFACE
:100B70004FF0010B0BFA0CFBABF1010B0BEA030B73
:100B80004AEA0B042146404602F0E2FCBDE8F09F31
:100B900000BF00F00702064B19684FF6FF0319402B
:100BA000044B0B4343EA0221014B196000BF70471D
:100BB0000CED00E00000FA05F8B50446002600251B
:100BC000207800F0010000286BD000274348C0695E
:100BD00000F0805070B900BF4048C06940F08050BC
:100BE0003E49C8610846C06900F08050009000BFCF
:100BF00000BF01273A48006800F48070B0B9384857
:100C0000006840F4807036490860FFF7F9FE064638
:100C100006E0FFF7F5FE801B642801D90320F8BD2C
:100C20002F48006800F480700028F2D02B48006A3A
:100C300000F440752DB3A08800F44070A84220D085
:100C40002648006A20F440750120264908600020EB
:100C500008602248056205F0010090B1FFF7D0FE60
:100C6000064608E0FFF7CCFE801B41F2883188423F
:100C700001D90320D3E71948006A00F002000028D8
:100C8000F0D01648006A20F44070616808431349A8
:100C90000862012F04D10846C06920F08050C86165
:100CA00000BF207800F00200022807D10B484068FE
:100CB00020F44040A168084308494860207800F0CB
:100CC0001000102807D10548406820F48000E16832
:100CD0000843024948600020A1E7000000100240DC
:100CE000007000404004424270B504460D460CB905
:100CF000012070BD5A48006800F00700A8420ED2DB
:100D00005748006820F00700284355490860084606
:100D1000006800F00700A84201D00120E9E7207830
:100D200000F0020002281DD1207800F00400042801
:100D300005D14C48406840F4E0604A49486020785A
:100D400000F00800082805D14648406840F460508B
:100D5000444948604348406820F0F000A1680843D7
:100D600040494860207800F0010078B360680128AD
:100D700006D13C48006800F4003090B90120B8E783
:100D80006068022806D13748006800F0007040B95A
:100D90000120AEE73348006800F0020008B90120E6
:100DA000A7E73048406820F00300616808432D49F8
:100DB0004860FFF725FE064609E0FFF721FE801B8D
:100DC00041F28831884202D9032092E707E02548A2
:100DD000406800F00C006168B0EB810FEDD1204855
:100DE000006800F00700A8420ED91D48006820F0F6
:100DF000070028431A4908600846006800F0070009
:100E0000A84201D0012074E7207800F004000428F3
:100E100007D11448406820F4E060E16808431149B4
:100E20004860207800F00800082808D10D48406884
:100E300020F46050216940EAC1000A49486000F08E
:100E40003FF808494968C1F30311074A515CC8409B
:100E50000649086006480068FFF7F8FD002048E7EB
:100E60000020024000100240D43900083400002065
:100E70002C0000200148006870470000340000206A
:100E800000B5FFF7F7FF04494968C1F30221034A9F
:100E9000515CC84000BD000000100240E439000869
:100EA00000B5FFF7E7FF04494968C1F3C221034ACF
:100EB000515CC84000BD000000100240E439000849
:100EC00070B500210022002400230020134D696822
:100ED00001F00C05F5B1042D02D0082D19D101E067
:100EE0000F4819E00F4DC1F38346AB5D01F4803527
:100EF00055B10A4D6D68C5F340450B4E725D084D06
:100F00005D43B5FBF2F402E0084D03FB05F4204617
:100F100002E000BF024800BF00BF70BD00100240E9
:100F200000127A00C2390008D239000800093D00D9
:100F3000F8B504460CB90120F8BD207800F0010096
:100F4000002878D0F848406800F00C0004280CD045
:100F5000F548406800F00C00082811D1F2484068BC
:100F600000F48030B0F5803F0AD1EF48006800F40B
:100F7000003000285FD0606800285CD10120DBE7EA
:100F800000BF6068B0F5803F06D1E748006840F4D4
:100F90008030E549086028E0606858B9E248006898
:100FA00020F48030E04908600846006820F4802082
:100FB00008601AE06068B0F5A02F0BD1DA4800682D
:100FC00040F48020D84908600846006840F480302A
:100FD00008600AE0D448006820F48030D2490860F4
:100FE0000846006820F48020086000BF606888B16F
:100FF000FFF706FD054606E0FFF702FD401B6428EB
:1010000001D9032098E7C848006800F400300028A0
:10101000F2D010E0FFF7F4FC054606E0FFF7F0FC25
:10102000401B642801D9032086E7BF48006800F40C
:1010300000300028F2D1207800F00200022857D1B9
:10104000B948406800F00C0050B1B748406800F063
:101050000C00082818D1B448406800F4803098B9D2
:10106000B148006800F0020020B12069012801D0D9
:10107000012061E7AC48006820F0F800616940EAAF
:10108000C100A949086033E02069E8B10120A749FF
:101090000860FFF7B5FC054606E0FFF7B1FC401B12
:1010A000022801D9032047E79F48006800F00200AA
:1010B0000028F2D09C48006820F0F800616940EAFE
:1010C000C1009949086013E0002098490860FFF7C3
:1010D00097FC054606E0FFF793FC401B022801D968
:1010E000032029E79048006800F002000028F2D1B0
:1010F000207800F0080008282DD1A069B8B101209F
:101100008B490860FFF77CFC054606E0FFF778FC9A
:10111000401B022801D903200EE78348406A00F0F3
:1011200002000028F2D0012001F072FE13E000203E
:101130007F490860FFF764FC054606E0FFF760FCA6
:10114000401B022801D90320F6E67748406A00F0E8
:1011500002000028F2D1207800F00400042873D1A6
:1011600000277148C06900F0805070B900BF6E4818
:10117000C06940F080506C49C8610846C06900F001
:101180008050009000BF00BF01276A48006800F44B
:101190008070B0B96748006840F4807065490860A5
:1011A000FFF72EFC054606E0FFF72AFC401B6428EB
:1011B00001D90320C0E65F48006800F48070002871
:1011C000F2D000BFE068012806D15748006A40F01D
:1011D00001005549086227E0E06858B95248006AA2
:1011E00020F00100504908620846006A20F004001F
:1011F000086219E0E06805280BD14B48006A40F00E
:101200000400494908620846006A40F0010008628B
:101210000AE04548006A20F0010043490862084698
:10122000006A20F00400086200BFE068A0B1FFF788
:10123000E7FB054609E0FFF7E3FB401B41F288317D
:10124000884202D9032077E622E03748006A00F09E
:1012500002000028EFD012E0FFF7D2FB054608E0BD
:10126000FFF7CEFB401B41F28831884201D90320B1
:1012700062E62D48006A00F002000028F0D1012F3C
:1012800005D12948C06920F080502749C86100BFB6
:10129000E069C8B32448406800F00C00082860D01A
:1012A000E069022848D1002020490866FFF7A8FB22
:1012B000054606E0FFF7A4FB401B022801D90320E6
:1012C0003AE61948006800F000700028F2D1206A60
:1012D000B0F5803F07D11448406820F40030A16881
:1012E000084311494860D4E9080108430E49496898
:1012F00021F4741108430C49486001200B49086629
:10130000FFF77EFB054607E03DE0FFF779FB401B5A
:10131000022801D903200FE60348006800F000709E
:101320000028F2D02FE000000010024000004242EE
:101330008004424200700040002014490866FFF714
:101340005FFB054606E0FFF75BFB401B022801D967
:101350000320F1E50E48006800F000700028F2D18B
:1013600011E0E069012800D1E6E50948466806F485
:101370008031206A814204D106F47011606A814292
:1013800001D00120D8E50020D6E50000000042424F
:101390000010024070B504462546681EB0F1807FFB
:1013A00001D301200FE0681E4FF0E02148610F21BA
:1013B0004FF0FF3002F0CCF800204FF0E0218861C0
:1013C00007200861002070BD7047704710B50346C4
:1013D000002200BF93F83C00012801D1022010BD7B
:1013E000012083F83C0000BF22F0FF00CC6840EAF7
:1013F000040222F440708C6840EA040222F4806007
:101400004C6840EA040222F400600C6840EA0402DE
:1014100022F480500C6940EA040222F400504C6926
:1014200040EA040222F48040CC6940EA04021868D1
:10143000426400BF002083F83C0000BF00BFCEE73D
:1014400030B502460B4600BF92F83C00012801D19E
:10145000022030BD012082F83C0000BF022082F84B
:101460003D00106844681068816824F070041868B2
:10147000044310684460104D1068A8420BD01068F7
:10148000B0F1804F07D00D4D1068A84203D00C4D2D
:101490001068A84205D121F0800158680143106806
:1014A0008160012082F83D0000BF002082F83C00EE
:1014B00000BF00BFCDE70000002C01400004004049
:1014C0000008004070B504460D4615B994F8420076
:1014D0000BE0042D02D14320005D06E0082D02D16F
:1014E0004420005D01E04520005D012801D001207D
:1014F00070BD1DB9022084F842000EE0042D03D116
:1015000002214320015508E0082D03D10221442087
:10151000015502E002214520015504222946206898
:1015200001F025FD2068406C40F4004021684864CB
:101530001249206888420BD02068B0F1804F07D054
:101540000F492068884203D00E49206888420CD198
:101550002068806800F00706062E0CD0206800681E
:1015600040F001002168086005E02068006840F054
:101570000100216808600020BAE70000002C01404B
:10158000000400400008004010B504460CB90120DA
:1015900010BD94F83D0028B9002084F83C00204696
:1015A00000F026F8022084F83D00211D206801F09B
:1015B00093FC012084F8460000BF84F83E0001211E
:1015C0003F200155402001554120015500BF00BF7B
:1015D000012084F842004320015544200155452054
:1015E000015500BF012084F83D000020D0E7000035
:1015F00038B504460D492068884215D100BF0C4813
:10160000806940F400600A4988610846806900F4F6
:101610000060009000BF00BF002211461920FFF7B4
:1016200079FA1920FFF766FA38BD0000002C014056
:1016300000100240014691F83D00012801D0012030
:101640007047022081F83D000868C06840F0010042
:101650000B68D860124B086898420BD00868B0F14C
:10166000804F07D00F4B0868984203D00E4B086894
:1016700098420CD10868806800F00702062A0CD056
:101680000868006840F001000B68186005E0086811
:10169000006840F001000B6818600020D0E70000EF
:1016A000002C014000040040000800402DE9F041FA
:1016B00004460D46002700BF94F83C00012802D1E3
:1016C0000220BDE8F081012084F83C0000BF022028
:1016D00084F83D002068866826F0770626F47F4669
:1016E000206886602868502833D00CDC202850D031
:1016F00004DC00284BD0102851D149E0302849D0D3
:1017000040284CD139E060282DD0702807D0B0F5A2
:10171000805F03D0B0F5005F41D10DE041E0D5E935
:1017200002136A68206801F033FC2068866846F07E
:1017300077062068866034E0D5E902136A6820687D
:1017400001F026FC2068806840F4804021688860B1
:1017500027E0EA686968206801F0EAFC5021206807
:1017600001F021FC1DE0EA686968206801F0F3FCE3
:101770006021206801F017FC13E0EA6869682068BE
:1017800001F0D6FC4021206801F00DFC09E000BF0B
:1017900000BF00BF2968206801F005FC01E00127B7
:1017A00000BF00BF012084F83D0000BF002084F886
:1017B0003C0000BF384684E72DE9F04104460D4661
:1017C00014B90120BDE8F08194F83D0028B900204B
:1017D00084F83C00204600F051F8022084F83D00D7
:1017E0002068806844F20701884321688860211DD1
:1017F000206801F071FB2068D0F8088020688669B5
:101800002068076A286840EA080840F203308643E7
:10181000A969A86840EA0120064340F60C408643C7
:101820004FF2F0008643E969E86840EA0120064388
:1018300028690001296A40EA0130064327F022079F
:101840006969686840EA011007432068C0F80880A9
:101850002068866120680762012084F8460084F8C9
:101860003E0001213F200155012084F84200432021
:101870000155012084F83D000020A3E710B586B093
:1018800004460020029003900490059029492068A6
:10189000884224D100BF2848C06940F00200264990
:1018A000C8610846C06900F00200019000BF00BF97
:1018B00000BF0846806940F00400886108468069DE
:1018C00000F00400019000BF00BFC0200290002083
:1018D0000390049002A91948FEF7F4FE27E0184986
:1018E0002068884223D100BF1348C06940F004003B
:1018F0001149C8610846C06900F00400019000BFAA
:1019000000BF00BF0846806940F0080088610846B3
:10191000806900F00800019000BF00BFC020029065
:1019200000200390049002A90648FEF7CBFE06B003
:1019300010BD0000000400400010024000080140FB
:1019400000080040000C0140704710B504462068B4
:101950000069C0F34000D8B12068C068C0F34000FF
:10196000B0B16FF002002168086101202077206883
:10197000806900F0030018B12046FFF7E5FF05E09D
:10198000204600F003F9204600F0CCF90020207733
:1019900020680069C0F38000D8B12068C068C0F337
:1019A0008000B0B16FF00400216808610220207748
:1019B0002068806900F4407018B12046FFF7C4FF2A
:1019C00005E0204600F0E2F8204600F0ABF90020E8
:1019D000207720680069C0F3C000D8B12068C068D3
:1019E000C0F3C000B0B16FF00800216808610420A6
:1019F00020772068C06900F0030018B12046FFF787
:101A0000A3FF05E0204600F0C1F8204600F08AF967
:101A10000020207720680069C0F30010D8B120684A
:101A2000C068C0F30010B0B16FF010002168086109
:101A3000082020772068C06900F4407018B1204663
:101A4000FFF782FF05E0204600F0A0F8204600F0F6
:101A500069F9002020772068006900F0010058B182
:101A60002068C06800F0010030B16FF0010021680B
:101A70000861204600F0C2F920680069C0F3C01078
:101A800058B12068C068C0F3C01030B16FF080005A
:101A9000216808612046FFF797FC20680069C0F3C1
:101AA000801058B12068C068C0F3801030B16FF06A
:101AB000400021680861204600F0E8F920680069CC
:101AC000C0F3401058B12068C068C0F3401030B176
:101AD0006FF02000216808612046FFF776FC10BDFA
:101AE00010B586B004460020029003900490059043
:101AF00021492068884221D100BF2048806940F0F8
:101B000008001E4988610846806900F008000190BD
:101B100000BF00BF0120029002200390059002A99F
:101B20001748FEF7CFFD00BF1649486820F0C000F7
:101B300040F0E06040F0400048601AE02068B0F1FA
:101B4000804F16D100BF0D48806940F004000B495A
:101B500088610846806900F00400019000BF00BF62
:101B60000F20029002200390059002A90648FEF77C
:101B7000A9FD06B010BD0000002C0140001002407D
:101B8000000C0140000001400008014070472DE9B1
:101B9000F04104460D461646002700BF94F83C006D
:101BA000012802D10220BDE8F081012084F83C0028
:101BB00000BF36B1042E1BD0082E31D00C2E5ED1C2
:101BC00045E02946206801F0F7F92068806940F077
:101BD0000800216888612068806920F0040021687D
:101BE000886120688069296908432168886148E024
:101BF0002946206801F010FA2068806940F40060EE
:101C0000216888612068806920F48060216888618B
:101C100020688069296940EA01202168886130E0F4
:101C20002946206801F02CFA2068C06940F00800BD
:101C30002168C8612068C06920F004002168C8617B
:101C40002068C069296908432168C86119E02946EC
:101C5000206801F049FA2068C06940F400602168FA
:101C6000C8612068C06920F480602168C86120686C
:101C7000C069296940EA01202168C86101E00127A3
:101C800000BF00BF00BF002084F83C0000BF384602
:101C900089E710B504460CB9012010BD94F83D0049
:101CA00028B9002084F83C00204600F025F80220E6
:101CB00084F83D00211D206801F00EF9012084F810
:101CC000460000BF84F83E0001213F20015540201E
:101CD00001554120015500BF00BF012084F842009A
:101CE00043200155442001554520015500BF0120E6
:101CF00084F83D000020D0E708B50168B1F1804FBD
:101D00000DD100BF0649C96941F00101044AD16102
:101D10001146C96901F00101009100BF00BF08BD73
:101D2000001002407047000070B504460D4615B91A
:101D300094F83E000BE0042D02D13F20005D06E048
:101D4000082D02D14020005D01E04120005D012806
:101D500001D0012070BD1DB9022084F83E000EE0C4
:101D6000042D03D102213F20015508E0082D03D1A5
:101D700002214020015502E00221412001550122AB
:101D80002946206801F0E2F819492068884201D10B
:101D9000012000E0002028B12068406C40F40040A1
:101DA000216848641249206888420BD02068B0F14D
:101DB000804F07D00F492068884203D00E49206821
:101DC00088420CD12068806800F00706062E0CD0EF
:101DD0002068006840F001002168086005E0206884
:101DE000006840F00100216808600020B2E70000B0
:101DF000002C0140000400400008004010B50446DB
:101E0000114884421FD11148B0F90430B0F90020C4
:101E10004088404201B20EA001F082FB1248B0F9A6
:101E20000430B0F900204088404201B20FA001F018
:101E300077FB14480068B0F5FA6F04D10122110352
:101E40001148FEF7D7FD10BDB400002004000020AB
:101E500067783A2568642C67793A2568642C677A34
:101E60003A2568640A0000000A00002061783A25DB
:101E700068642C61793A2568642C617A3A25686433
:101E80000A00000000000020000801407047704771
:101E9000704700002DE9F84F044620680568206867
:101EA000C668206847694FF00009CA4605F00F0967
:101EB000B9F1000F0AD105F0200038B106F020007A
:101EC00020B1204601F0ABF9BDE8F88FB9F1000F61
:101ED0007BD007F0010018B906F49070002874D088
:101EE00005F0010030B106F4807018B1606C40F06C
:101EF0000100606405F0040030B107F0010018B182
:101F0000606C40F00200606405F0020030B107F040
:101F1000010018B1606C40F00400606405F0080036
:101F200048B106F0200010B907F0010018B1606C4C
:101F300040F008006064606C002845D005F0200087
:101F400028B106F0200010B1204601F068F92068A1
:101F50004069C0F3801A606C00F0080010B9BAF153
:101F6000000F2CD0204601F014F92068406900F0E1
:101F7000400000B300BF00BF2168143151E8001FCA
:101F800021F040002168143141E80002002AF3D119
:101F900000BFE06B50B17748E16B4863E06BFEF740
:101FA000EDFA88B1E06B416B88470DE02046FFF702
:101FB0006FFF09E009E02046FFF76AFF04E02046D2
:101FC000FFF766FF002060647EE7206B012877D171
:101FD00005F01000002873D006F010000028FAD099
:101FE00000BF0020009020680068009020684068D2
:101FF000009000BF00BF2068406900F0400000284A
:102000005FD0E06B006840681FFA80F8B8F1000FFD
:1020100055D0A08D404552DDA4F82E80E06B80693C
:10202000202843D000BF00BF21680C3151E8001FB9
:1020300021F4807021680C3141E80002002AF3D1BC
:1020400000BF00BF00BF2168143151E8001F21F01C
:1020500001002168143141E80002002AF3D100BFD9
:1020600000BF00BF2168143151E8001F21F040007B
:102070002168143141E80002002AF3D100BF20207A
:1020800084F842000020206300BF00BF21680C31AB
:1020900051E8001F21F0100021680C3141E80002D6
:1020A000002AF3D100BFE06BFEF73CFA0220606328
:1020B000A08DE28D801A81B22046FFF7E8FE03E78B
:1020C00042E0A08DE18D401A1FFA80F8E08DD0B378
:1020D000B8F1000F37D000BF00BF21680C3151E8C4
:1020E000001F21F4907021680C3141E80002002AA1
:1020F000F3D100BF00BF00BF2168143151E8001FB9
:1021000021F001002168143141E80002002AF3D1D6
:1021100000BF202084F842000020206300BF00BFE1
:1021200021680C3151E8001F21F0100021680C31AA
:1021300041E80002002AF3D100BF0220606341465B
:102140002046FFF7A4FEBFE605F0800030B106F0A0
:10215000800018B1204601F05FF9B5E605F04000B7
:1021600030B106F0400018B1204601F048F8ABE667
:1021700000BFA9E67F31000810B504460CB9012064
:1021800010BDA06900B100E000BF94F8410028B97B
:10219000002084F84000204600F02AF8242084F82B
:1021A00041002068C06820F400502168C8602046C3
:1021B00001F0B4F82068006920F4904021680861BB
:1021C0002068406920F02A00216848612068C068C2
:1021D00040F400502168C86000206064202084F82A
:1021E000410084F842000020606300BFC8E700009F
:1021F00010B586B00446002002900390049005902C
:1022000038492068884237D100BF3748806940F498
:102210008040354988610846806900F4804001901B
:1022200000BF00BF00BF0846806940F0040088611D
:102230000846806900F00400019000BF00BF481507
:102240000290022003900320059002A92748FEF780
:1022500039FA4FF48060029000200390049002A9A4
:102260002248FEF72FFA002211462520FEF752FCE5
:102270002520FEF73FFC32E01D49206888422ED120
:1022800000BF1948C06940F480201749C86108465A
:10229000C06900F48020019000BF00BF00BF084665
:1022A000806940F0080088610846806900F00800F5
:1022B000019000BF00BF0815029002200390032088
:1022C000059002A90B48FEF7FDF94FF4006002905B
:1022D00000200390049002A90648FEF7F3F906B027
:1022E00010BD00000038014000100240000801400D
:1022F00000480040000C014070472DE9F84F0446AB
:102300000E46174699464FF0000A94F841002028DF
:102310004AD106B117B90120BDE8F88F00206064EA
:10232000212084F84100FEF76BFB8246A784E784F6
:10233000A068B0F5805F04D1206910B90025B046CF
:1023400002E035464FF000081BE053460022802192
:102350002046CDF8009001F08FF808B10320DBE7AC
:1023600045B9B8F80000C0F308002168486008F1DA
:10237000020803E02878216848606D1CE08C401E4C
:10238000E084E08C0028E0D1534600224021204622
:10239000CDF8009001F070F808B10320BCE72020D0
:1023A00084F841000020B7E70220B5E7704700BF7E
:1023B000FEE7000010B500224FF400710C48FEF754
:1023C00019FB00F017F8012211020948FEF712FB71
:1023D00000F010F800224FF480710548FEF70AFB68
:1023E00000F008F8012251020148FEF703FB10BD7E
:1023F000000C0140002001E0411CC8B20128FBDBB9
:102400007047000000B585B000BF0E48806940F0FD
:1024100008000C4988610846806900F008000090B7
:1024200000BF00BF4FF440700190032004901120C2
:10243000029001A90448FEF745F900F0A1F805B0A3
:1024400000BD000000100240000C014010B5012248
:1024500051020A48FEF7CEFAFFF7CCFF0122110223
:102460000648FEF7C7FAFFF7C5FF00224FF4807158
:102470000248FEF7BFFAFFF7BDFF10BD000C014098
:1024800070B50546002400261AE06006040E0122FD
:1024900011021048FEF7AEFAFFF7ACFF4FF40071DF
:1024A0000C48FEF79FFA08B1601CC4B200224FF43A
:1024B00080710848FEF79EFAFFF79CFF701CC6B2B9
:1024C000082EE2DB15B9FFF7C1FF01E0FFF772FF4D
:1024D000204670BD000C014070B5044600252AE07E
:1024E00004F0800028B1012251021448FEF782FA5C
:1024F00005E000224FF400711048FEF77BFAFFF769
:1025000079FF012211020D48FEF774FAFFF772FFFE
:1025100000224FF480710948FEF76CFA072D04D1B0
:10252000012251020548FEF765FA6006040EFFF726
:1025300061FF681CC5B2082DD2DB70BD000C0140E4
:1025400010B5012251020D48FEF754FA0122110282
:102550000A48FEF74FFAFFF74DFF00224FF40071D3
:102560000648FEF747FAFFF745FF00224FF4807157
:102570000248FEF73FFAFFF73DFF10BD000C014097
:1025800010B500224FF400710748FEF733FA01221C
:1025900011020548FEF72EFAFFF72CFF0122510227
:1025A0000148FEF727FA10BD000C014010B50122CA
:1025B00051020F48FEF71EFAFFF71CFF012211021D
:1025C0000B48FEF717FAFFF715FF4FF400710848A4
:1025D000FEF708FA08B1012400E0002400224FF4BD
:1025E00080710348FEF706FAFFF704FF204610BD8E
:1025F000000C014070B504460D4629462046FEF702
:10260000F1F970B90A20FEF711F800BF29462046FB
:10261000FEF7E8F90028F9D00A20FEF707F80020B5
:1026200070BD0120FCE710B50024FFF7EBFE80220F
:102630006B21682000F074F96420FDF7F7FF002299
:102640006B21682000F06CF9012000F024F90020D3
:1026500000F018F9C82000F045F90122382168205F
:1026600000F05EF980223721682000F059F900223D
:102670006A21682000F054F900222321682000F02C
:102680004FF97521682000F09FF80446702C0DD199
:1026900001226B21682000F043F900226C216820A0
:1026A00000F03EF9C82000F01DF901E0012010BD46
:1026B0000020FCE77CB504466B4606223B216820DF
:1026C00000F0A6F80546BDB99DF801009DF8001080
:1026D00040EA012000B220809DF803009DF802101E
:1026E00040EA012000B260809DF805009DF80410CA
:1026F00040EA012000B2A08028467CBD7CB504469B
:102700006B4606224321682000F082F80546002D22
:1027100052D12A480068B0F5FA6F18DA9DF8010026
:102720009DF8001040EA012000B220809DF80300CF
:102730009DF8021040EA012000B260809DF805007B
:102740009DF8041040EA012000B2A08034E01B484C
:102750000068B0F5FA6F08D19DF801009DF80010EF
:1027600040EA012000B2164908809DF803009DF858
:10277000021040EA012000B2114948809DF805008E
:102780009DF8041040EA012000B20D4988800846F7
:1027900000880C490988401A00B220800848408807
:1027A00008494988401A00B2608005488088054978
:1027B0008988401A00B2A08028467CBD0000002015
:1027C0001C0000201600002070B504460D46FFF7DF
:1027D000B7FE002141EA4401C8B2FFF77DFEFFF7D2
:1027E000E5FE2846FFF778FEFFF7E0FEFFF7A8FEBC
:1027F000012101EB4401C8B2FFF76EFEFFF7D6FEE0
:102800000020FFF73DFE0646FFF7BAFE304670BDDA
:102810002DE9F04106460F4614461D46FFF790FE8F
:10282000002141EA4601C8B2FFF756FEFFF7BEFE9F
:1028300020B1FFF7A5FE0120BDE8F0813846FFF783
:102840004BFEFFF7B3FEFFF77BFE012101EB4601D4
:10285000C8B2FFF741FEFFF7A9FE0DE0012C04D13D
:102860000020FFF70DFE287003E00120FFF708FEAF
:102870002870601EC4B26D1C002CEFD1FFF780FEE3
:102880000020D9E710B50446E006020E1C2168209E
:1028900000F046F810BD10B50446E006020E1B21FC
:1028A000682000F03DF810BD70B504460025BC2C32
:1028B00001DB012510E0622C01DB02250CE02A2C53
:1028C00001DB032508E0142C01DB042504E00A2CBD
:1028D00001DB052500E006252A461A21682000F0C4
:1028E0001FF870BD70B50446B4F57A7F01DD4FF472
:1028F0007A74042C00DA04244FF47A7090FBF4F01C
:10290000401EC5B22A461921682000F009F8054684
:10291000264604EBD671C1F34F00FFF7C5FF70BD2B
:1029200070B504460D461646FFF70AFE002141EA3F
:102930004401C8B2FFF7D0FDFFF738FE18B1FFF72A
:102940001FFE012070BD2846FFF7C6FDFFF72EFED3
:102950003046FFF7C1FDFFF729FE18B1FFF710FE63
:102960000120EFE7FFF70CFE0020EBE70EB500209B
:10297000009001900290124812490860002111480D
:102980008160017301754FF46021C16100200D4920
:10299000486001210B480161FDF7EAFC08B1FDF731
:1029A00034FC042000900120019000200290694630
:1029B0000448FDF72DFC08B1FDF727FC0EBD000013
:1029C000002401408400002000B585B00020019063
:1029D00002900390049000BF3348806940F01000DB
:1029E000314988610846806900F01000009000BFFE
:1029F00000BF00BF0846806940F02000886108469B
:102A0000806900F02000009000BF00BF00BF0846B2
:102A1000806940F0040088610846806900F0040085
:102A2000009000BF00BF00BF0846806940F008006A
:102A300088610846806900F00800009000BF00BF70
:102A400000224FF481511948FDF7D4FF4FF4604044
:102A50000190002002900120039001A91448FDF785
:102A600031FE4FF48150019001200290002003902C
:102A70000220049001A90D48FDF724FE4FF4807058
:102A800001900C4802900120039001A90748FDF72E
:102A900019FE002203211720FEF73CF81720FEF74D
:102AA00029F805B000BD00000010024000080140F8
:102AB000001001400000211000B595B000201190D9
:102AC0001290139014900F9010901C2108A8FDF7FD
:102AD00032FB20216846FDF72EFB2B482B4908606E
:102AE000172048600021294881604EF65F21C160AF
:102AF0000021016141618161FEF746FD08B1FDF7EA
:102B000084FB4FF48050119011A92048FEF7CEFDB0
:102B100008B1FDF77AFB1D48FFF7BBF808B1FDF7D8
:102B200074FB00200F9010900FA91848FEF788FC46
:102B300008B1FDF76AFB60200890002009900A9018
:102B40000B900C900D900E90042208A90F48FFF7EF
:102B50001EF808B1FDF759FB00200090019002908B
:102B6000039004904FF400500590002007906946B0
:102B70000648FEF72BFC08B1FDF747FB0348FEF7BC
:102B8000AFFF15B000BD0000002C0140B4000020D4
:102B900000B589B00020079008901C216846FDF719
:102BA000CAFA4FF0804023490860002048600021A5
:102BB0002048816041F61F41C160002101618161AF
:102BC000FFF767F808B1FDF720FB00200790089099
:102BD00007A91848FEF734FC08B1FDF716FB602082
:102BE0000090002001900290049000226946114854
:102BF000FEF7CDFF08B1FDF708FB042269460D483A
:102C0000FEF7C5FF08B1FDF700FB08226946094839
:102C1000FEF7BDFF08B1FDF7F8FA0C22694605483A
:102C2000FEF7B5FF08B1FDF7F0FA0248FEF758FFCE
:102C300009B000BDFC00002000B58BB0242102A823
:102C4000FDF779FA002000900190184818490860B3
:102C5000002048600021164881604FF6FF71C16076
:102C60000021016181610120029000200390012078
:102C70000490002005900690079001200890002005
:102C800009900A9002A90A48FEF796FD08B1FDF7DF
:102C9000BCFA00200090019069460548FEF7D0FB81
:102CA00008B1FDF7B2FA0BB000BD0000000400400F
:102CB0004401002000B58BB0242102A8FDF73BFAA7
:102CC00000200090019018481849086000204860D2
:102CD0000021164881604FF6FF71C160002101613B
:102CE00081610120029000200390012004900020C7
:102CF00005900690079001200890002009900A9006
:102D000002A90A48FEF758FD08B1FDF77EFA002037
:102D10000090019069460548FEF792FB08B1FDF767
:102D200074FA0BB000BD0000000800408C010020C8
:102D300010B50B480B4908604FF4E13048600021A2
:102D400008488160C16001610C21416100218161FD
:102D5000C161FFF711FA08B1FDF757FA10BD000085
:102D600000380140D401002010B50B480B49086021
:102D70004FF4E1304860002108488160C160016182
:102D80000C21416100218161C161FFF7F5F908B1B2
:102D9000FDF73BFA10BD0000004800401C02002077
:102DA00000BFFEE700BFFEE700B54FF480501549B5
:102DB0000861002048614FF4A04088614FF47A1008
:102DC000C8600020C8830120087700200884488458
:102DD000084600F0F1FD4FF480500B4908610020D7
:102DE00048614FF4A04088614FF47A10C860002019
:102DF000C88301200877002008844884084600F032
:102E0000DBFD00BD3C00002060000020704700009A
:102E100008B508490968C9084FF47A72B1FBF2F1A4
:102E20004143009100BF00BF00994A1E0092002953
:102E3000F9D108BD34000020704710B5FDF7E6FD5C
:102E400010BD00B593B0282109A8FDF774F914212D
:102E500004A8FDF770F90020009001900290039003
:102E60000120099000040A9000200B9001200D9091
:102E700002201090C10311914FF4E011129109A8A2
:102E8000FEF756F808B1FDF7C0F90F2004900220B4
:102E90000590002006904FF4806007900020089075
:102EA000022104A8FDF720FF08B1FDF7AEF90220CA
:102EB0000090800302906846FDF77EFE08B1FDF7A2
:102EC000A4F913B000BD704710B50248FEF73DFDF0
:102ED00010BD0000B400002010B50268184B9842E5
:102EE00008D0B0F1804F05D0164B984202D0164B57
:102EF000984203D122F070024B681A43104B98425B
:102F000008D0B0F1804F05D00E4B984202D00E4B46
:102F1000984203D122F44072CB681A4322F0800316
:102F20004C6943EA040202608B68C3620B688362E7
:102F3000034B984201D10B6903630123436110BD28
:102F4000002C0140000400400008004030B501F0B2
:102F50001F05012404FA05F3046A9C430462046A11
:102F600001F01F0502FA05F52C43046230BD30B5AF
:102F700001F01F05042404FA05F3046A9C4304626B
:102F8000046A01F01F0502FA05F52C43046230BD06
:102F900030B50C46816821F47F4142EA0325254380
:102FA0002943816030BD0A46816821F0700142F0FA
:102FB000070319438160704730B5026A056A25F03E
:102FC000010505624368846924F0700424F0030459
:102FD0000D682C4322F002028D682A430D4DA84251
:102FE00006D100BF22F00802CD682A4322F0040275
:102FF000084DA84207D123F4807323F400734D6970
:103000002B438D692B43436084614D6845630262A5
:1030100030BD0000002C014030B5026A056A25F081
:10302000100505624368846924F4E04424F4407484
:103030000D6844EA052422F020028D6842EA051258
:103040000E4DA84207D100BF22F08002CD6842EAAF
:10305000051222F04002094DA84209D123F48063F1
:1030600023F400634D6943EA85038D6943EA8503D0
:10307000436084614D688563026230BD002C01406D
:1030800030B5026A056A25F4807505624368C46933
:1030900024F0700424F003040D682C4322F4007221
:1030A0008D6842EA05220F4DA84207D100BF22F4E5
:1030B0000062CD6842EA052222F48062094DA842EE
:1030C00009D123F4805323F400534D6943EA0513D7
:1030D0008D6943EA05134360C4614D68C5630262AC
:1030E00030BD0000002C014030B5036A056A25F4AC
:1030F000805505624468C26922F4E04222F44072BD
:103100000D6842EA052223F400538D6843EA053333
:10311000064DA84204D124F480444D6944EA851444
:103120004460C2614D680564036230BD002C0140FB
:1031300030B50B461446026A056A25F001050562A2
:10314000816921F0F00141EA041122F00A021A43D8
:103150008161026230BD30B50B461446026A056AD1
:1031600025F010050562816921F4704141EA0431BE
:1031700022F0A00242EA03128161026230BD70B502
:1031800005466C6A0020E085E0842046FEF780FE5C
:1031900070BD00BF00BF02680C3252E8002F22F45D
:1031A000907102680C3242E80013002BF3D100BF8B
:1031B00000BF00BF0268143252E8002F22F0010164
:1031C0000268143242E80013002BF3D100BF016BF8
:1031D00001290ED100BF00BF02680C3252E8002F57
:1031E00022F0100102680C3242E80013002BF3D1E8
:1031F00000BF202180F8421000210163704710B504
:1032000004462068C06820F040002168C860202083
:1032100084F841002046FFF7C9F8002010BDF8B53A
:10322000044694F84200222875D1A068B0F5805F6A
:103230000CD1206950B90025A66A20684068C0F307
:1032400008003080A06A801CA06215E0A56A0026F4
:10325000A068B0F5805F03D0A06828B9206918B9CC
:1032600020684068287004E02068406800F07F0013
:103270002870A06A401CA062E08D401E80B2E085EC
:10328000002846D12068C06820F020002168C8606E
:103290002068C06820F480702168C8602068406998
:1032A00020F0010021684861202084F842000020BD
:1032B0006063206B012826D10020206300BF00BF7F
:1032C00021680C3151E8001F21F0100021680C31F9
:1032D00041E80002002AF3D100BF2068006800F036
:1032E000100010280AD100BF00200090206800685C
:1032F000009020684068009000BF00BFA18D20466C
:10330000FEF7C5FD02E02046FEF7F6FF0020F8BDFF
:1033100001E00020FBE70220F9E7000070B5044659
:103320002168096921F44051E26811432268116162
:103330002269A1681143626941EA02052168C968EE
:1033400041F20C62914329432268D16021684969A6
:1033500021F44071A2691143226851612D4A21680C
:10336000914202D1FDF79CFD01E0FDF789FD00EBE4
:10337000C00101EB001162689200B1FBF2F100EBB9
:10338000C00202EB001263689B00B2FBF3F26423FD
:10339000B2FBF3F202EBC20303EB0212A1EB8201D8
:1033A000322202EB01116422B1FBF2F101F0F001D3
:1033B00000EBC00202EB001263689B00B2FBF3F269
:1033C0006423B2FBF3F201EB021200EBC00101EB4C
:1033D000001163689B00B1FBF3F100EBC00303EB4A
:1033E00000136668B600B3FBF6F36426B3FBF6F38E
:1033F00003EBC30606EB0313A1EB8301322303EBBC
:1034000001116423B1FBF3F101F00F0111442268B3
:10341000916070BD00380140014691F841002128BB
:1034200028D18868B0F5805F0BD1086948B90A6A6D
:103430001088C0F308000B685860086A801C086296
:1034400005E00B6A581C086218780B685860C88C35
:10345000401E80B2C88458B90868C06820F0800057
:103460000B68D8600868C06840F040000B68D860FE
:10347000002070470220FCE72DE9F04104460D468C
:1034800017469846069E34E0701C88B32EB1FDF7AF
:10349000B7FAA0EB0800B0422BD900BF00BF2168EB
:1034A0000C3151E8001F21F4D07021680C3141E843
:1034B0000002002AF3D100BF00BF00BF2168143111
:1034C00051E8001F21F001002168143141E8000299
:1034D000002AF3D100BF202084F8410084F8420084
:1034E00000BF002084F8400000BF0320BDE8F08149
:1034F000FFE7206800682840A84201D1012000E0D1
:103500000020B842C0D00020F0E7000010B502480B
:10351000FEF7C0FC10BD0000D401002000BFFEE794
:103520000FB4054B10B503A9044A029800F034F813
:1035300010BC5DF814FB0000DD38000838000020E6
:1035400002480068C0F30220704700000CED00E064
:1035500010B5002804DB0A07130E054A135406E0D1
:103560000A07140E034A00F00F031B1FD45410BDAA
:1035700000E400E018ED00E002E008C8121F08C1F6
:10358000002AFAD170477047002001E001C1121FE4
:10359000002AFBD1704700002DE9FF4F8BB0884611
:1035A0000546002606E025280BD0DDE90D129047E0
:1035B0006D1C761C28780028F5D10FB03046BDE888
:1035C000F08F0024A146A2460122AE4900E0044348
:1035D00015F8013F203B02FA03F00842F7D12878A2
:1035E0002A2810D06FF02F022878A0F13001092985
:1035F00015D809EB890102EB410144F0020400EB0C
:1036000001096D1CF0E758F8041B5FEA010903D5B6
:1036100044F40054C9F1000944F002046D1C2878F8
:103620002E2817D115F8010F44F004042A280ED0D3
:103630006FF02F022878A0F1300109290AD80AEB8F
:103640008A0102EB410100EB010A6D1CF2E758F818
:1036500004AB6D1C28786C280FD006DC4C2817D0E2
:1036600068280DD06A2814D104E0742810D07A2874
:103670000FD10DE044F400140AE044F4801401E09A
:1036800044F440146978814202D104F580146D1C21
:103690006D1C2878692865D006DC00288DD0632849
:1036A00027D0642806D15DE06E2808D073282AD080
:1036B000752877D0DDE90D129047761CE0E0C4F361
:1036C0000250022809D003280DD0D8F80010042891
:1036D0000DD00E6008F10408D2E0D8F80010F217FF
:1036E000C1E90062F6E7D8F800100E80F2E70E702C
:1036F000F0E718F8041B8DF8001000208DF8010089
:10370000EB46012003E058F804BB4FF0FF3061079F
:103710004FF0000701D40AE07F1C57450DDA8742BD
:10372000FADB1BF807100029F6D106E07F1C874260
:10373000FCDB1BF807100029F8D1DDE90D23A9EB0C
:1037400007008146214600F0B1F83044C61904E074
:10375000DDE90D121BF8010B90477F1EF8D22146C0
:10376000484688E058F8040BC4F302514FF00A0BA6
:10377000032900D100B2042900D140B2002802DAA6
:1037800040422D2102E0210505D52B218DF8241082
:10379000012104E006E0E10710D02021F6E708AFA0
:1037A000089113E058F8040BC4F302514FF00A0BD0
:1037B000032900D180B2042900D1C0B20021EEE774
:1037C0005946FCF7C3FC303107F8011D0028F7D13A
:1037D000ADEB070000F1200B600702D524F4803424
:1037E00001E04FF0010ADA4502DDAAEB0B0000E030
:1037F0000020824600EB0B0108980144A9EB010070
:103800000A90E00306D4DDE90D2321460A9800F072
:103810004DF806444FF0000908E009A911F8090025
:10382000DDE90D12904709F10109761C08998945D7
:10383000F3DBE0030CD5DDE90D2321460A9800F007
:1038400035F8064404E0DDE90D1230209047761C7F
:10385000BAF10001AAF1010AF5DC05E0DDE90D127B
:1038600017F8010B9047761CBBF10001ABF1010B7F
:10387000F4DC0A982146DDE90D2300F005F8064442
:103880006D1C97E6092801002DE9F041044600254A
:103890001E461746880404D405E039462020B04768
:1038A0006D1C641EF9D52846BDE8F0812DE9F04174
:1038B000044600251E469046C80301D5302700E087
:1038C0002027880404D505E041463846B0476D1CE2
:1038D000641EF9D52846BDE8F081000013B50C46FA
:1038E0004FF0FF33012269460248FEF706FD0098BB
:1038F0001CBD0000D4010020FDF794F8FFF7A1FAE9
:10390000FFF762F8FFF732F8FFF7D6F8FFF740F954
:10391000FFF792F9FFF7CEF9FFF70AFAFFF724FA5B
:1039200000212148FEF700FA04211F48FEF7FCF9A8
:1039300008211D48FEF7F8F90C211B48FEF7F4F9A1
:1039400004211A48FDF7BEFD6FF001001749096810
:1039500008611648FDF76EFEFFF726FAFEF763FED4
:1039600021E04FF400511248FEF744FE20B91148FF
:10397000006832300F4908604FF480410C48FEF770
:1039800039FE28B90B48006800F5C870094908607D
:103990004FF400410648FEF72DFE20B905480068A7
:1039A000C83804490860DCE7FC000020B4000020AF
:1039B000001001402400002000210160416081606E
:1039C000704702030405060708090A0B0C0D0E0FC9
:1039D00010100102000000000000000001020304BA
:1039E0000607080900000000010203040C3A000861
:1039F000000000203C00000078350008483A00082C
:103A00003C0000202C060000883500080000000063
:103A100000000000000000000000000000000000A6
:103A20000000000000000000000000000000000096
:103A30005C12000000000000100000000100000007
:083A40000024F4000000000066
:04000005080000ED02
:00000001FF
