:020000040800F2
:10000000F806002005010008014200083736000804
:10001000FD410008590A0008714A0008000000006C
:100020000000000000000000000000003142000855
:10003000990A00080000000005420008514300082A
:100040001F0100081F0100081F0100081F01000810
:100050001F0100081F0100081F0100081F01000800
:100060001F0100081F0100081F0100081F010008F0
:100070001F0100081F0100081F0100081F010008E0
:100080001F0100081F0100081F0100081F010008D0
:100090001F0100081F0100081F010008710C000863
:1000A0001F010008E14300081F0100081F010008AC
:1000B0001F0100081F0100081F0100081F010008A0
:1000C0001F0100081F0100081F0100081F01000890
:1000D0001F010008414A00081F0100081F01000815
:1000E0001F0100081F0100081F010008DFF810D0E1
:1000F00000F02AFC00480047DD560008AFF30080FE
:10010000F80600200648804706480047FEE7FEE75D
:10011000FEE7FEE7FEE7FEE7FEE7FEE7FEE7FEE7B7
:10012000DD430008ED000008202A04DB203A21FA14
:1001300002F00021704721FA02F3D040C2F1200200
:100140009140084319467047D2B201E000F8012BF4
:10015000491EFBD270470022F6E710B513460A4647
:1001600004461946FFF7F0FF204610BDF0B480EAC0
:100170000102D40F4200B2EB410F02D20246084600
:1001800011464A0042D0C30DDDB2C1F3C752AD1AC9
:10019000202D35DAC1F3160141F4000204B15242B8
:1001A000C5F1200602FA06F12A411044B3EBD05FF4
:1001B00023D0C4B1012DA0EBC35009DCF0BC4FF03B
:1001C000004202EAC352DBB200F5000000F01ABBA5
:1001D000400000F1807000EBC350A0F1807040EA55
:1001E000D170490009E0490841EAC071A0EBC35051
:1001F00000F50000400800EBC350F0BC00F0F9BA75
:100200006142012202EB4101001BF6E7F0BC70479E
:1002100081F00041AAE780F00040A7E780EA0102F0
:1002200010B502F00043400022D04A001FD0010E5A
:1002300001EB1261C0F35600C2F3560240F4000015
:1002400042F40002A0FB022000047F39140400D015
:10025000401C50EA124001D44000491EC2B20C06B4
:1002600004EBD010401C4008802A02D003E000209C
:1002700010BD20F00100002900DA0020184310BD55
:1002800030B480EA010202F0004530F0004221F073
:10029000004013D090B1C30DD40DC2F31601C0F3CA
:1002A0001600E41A41F4000140F400027D3491424A
:1002B00001D3641C00E04900002C02DA30BC0020AD
:1002C00070474FF400000023914201D3891A034381
:1002D00040084FEA4101F7D151B1914202D14FF0AC
:1002E000004105E002D24FF0010101E06FF0010191
:1002F00003EBC450284430BC00F07BBA2DE9FE4F1C
:10030000804681EA0300C00F0C46009021F00041B6
:1003100023F00045B8EB0200A94105D24046214632
:1003200090461C460B46024623F00040104347D03F
:10033000270DC7F30A00C3F30A510290401A019037
:1003400040286BDAC3F3130040F4801B00989246F8
:1003500020B10023D2EB030A63EB0B0B0198594643
:10036000C0F14002504600F023FA06460D465046C2
:100370005946019A00F02BFA10EB08006141002465
:1003800087EA115284EAE7731A4340D0009A62B3B5
:10039000019A012A4FEA075215DC001B61EB0201AA
:1003A0004FF0004202EA0752CDE90042001C41F53D
:1003B000801132462B4600F062FA03B0BDE8F08FA0
:1003C00040462146F9E7001B61EB0201001C41F5A4
:1003D000801300185B412018A2F5001747EB0301BA
:1003E00040EAD570B6196D4111E06D084FEA360646
:1003F00045EAC0754FEA0752001B61EB0201001C81
:1004000041F5801149084FEA300000195141324648
:100410002B4603B0BDE8F04F00F022BA009801224D
:1004200040000023D0EB020263EBE073009821460A
:100430004FEAE074B8EB000061EB0401E9E783F0F8
:1004400000435BE781F0004158E72DE9FE4F81EA68
:10045000030404F0004421F0004100944FF0000B2D
:1004600023F0004350EA01045ED052EA03045BD05B
:10047000C3F30A54C1F30A552C44A4F2F334019493
:10048000A0FB0254C1F3130141F48011C3F3130321
:1004900043F4801301FB024400FB034E840A970AD5
:1004A00044EA815447EA8357A4FB076802958D0A02
:1004B00005FB07854FEA932C04FB0C542705029D8E
:1004C0004FEA065847EA1637B5EB08056EEB070CFE
:1004D000870E920E47EA811742EA8312A7FB0201B8
:1004E000B6EB0B0164EB00042B0D43EA0C335E18F2
:1004F00044EB1C50DA465146E7FB0201C5F31304F6
:100500004FEA0B3343EA14534FEA0432019C43EAA7
:100510000603A4F10C040294009CCDE900B400F0A1
:10052000AEF903B0BDE8F08F00200146F9E72DE9F0
:10053000F04D81EA030404F0004B21F0004514461D
:100540004FF0000A23F0004150EA050220D054EA9F
:1005500001021DD0C5F30A570246C5F31303C1F3C8
:100560001300C1F30A5640F4801543F48013A7EB3F
:100570000608101BD64608F2FD3873EB050002D3BF
:1005800008F1010801E092185B41B8F1000F03DAAD
:1005900000200146BDE8F08D00204FF48011064692
:1005A00084460EE0171B73EB050705D3121B63EBA4
:1005B000050306434CEA010C49084FEA3000921843
:1005C0005B4150EA0107EDD152EA030012D082EA02
:1005D000040083EA0501084305D0101BAB4106D295
:1005E0000122002306E000224FF0004302E06FF0FA
:1005F000010253101AEB06004CEB085110EB0A00F5
:1006000041EB0B01BDE8F04D00F02AB9C10F80EAC3
:10061000E0700844CA079623002100F0F3B80EB535
:10062000C10F80EAE0700844CA07002140F233435A
:100630008DE80E000A460B4600F021F903B000BD1C
:100640000EB540F2334102910021CDE900110A4676
:100650000B4600F014F903B000BD00F0004220F09A
:100660000040C10DC0F3160040F400007F2901DAFC
:1006700000207047962903DCC1F19601C84001E0D3
:1006800096398840002AF4D04042704770B5C1F3D3
:100690000A5201F000450024C1F3130140F2FF3378
:1006A00041F480119A4201DA002070BD40F23343D8
:1006B0009A42A2F2334203DC5242FFF735FD00E0DA
:1006C00090402C43F1D0404270BD00F0004230F029
:1006D00000400AD0C10D01F56071C0F3160042EA76
:1006E0000151C2084007114370470020014670477E
:1006F00030B5041E71F1000404DB4FF000444042A9
:1007000064EB0101141E73F1000405DB1C464FF07D
:100710000043524263EB04038B4208BF824230BD68
:1007200030B5041E71F1000404DB4FF00044404278
:1007300064EB0101141E73F1000405DB1C464FF04D
:100740000043524263EB0403994208BF904230BD1C
:1007500001F0004330B421F0004150EA010206D01C
:100760000A0DA2F56072C1F31301002A02DC30BC4D
:1007700000207047440F44EAC104C100E01830BCB7
:1007800000EBC25000F035B8002801DBC0F100409A
:10079000002901DBC1F1004181427047002801DBE3
:1007A000C0F10040002901DBC1F1004188427047DF
:1007B000202A04DB203A00FA02F100207047914021
:1007C000C2F1200320FA03F3194390407047202A16
:1007D00006DBCB17203A41FA02F043EAE07306E069
:1007E00041FA02F3D040C2F1200291400843194679
:1007F00070470029A8BF7047401C490008BF20F07F
:100800000100704710B4B0FA80FC00FA0CF050EA16
:10081000010404BF10BC704749B1CCF1200421FA97
:1008200004F411FA0CF118BF012121430843A3EB92
:100830000C01CB1D4FEA00614FEA102042BF00209F
:1008400010BC704700EBC35010440029A4BF10BC7B
:100850007047401C490008BF20F0010010BC7047E1
:1008600010B5141E73F1000408DA401C41F10001B8
:1008700092185B411A4301D120F0010010BD2DE90F
:10088000F04D92469B4611B1B1FA81F202E0B0FA06
:1008900080F220329046FFF78BFF04460F4640EA75
:1008A0000A0041EA0B0153465A46084313D0114649
:1008B00053EA010019D0C8F140025046FFF734FC5A
:1008C00005460E46504659464246FFF771FF08431B
:1008D00005D0012004E020463946BDE8F08D002017
:1008E000054346EAE0762C4337430A986305E40A59
:1008F000A0EB08000022FD0A44EA47540A3002D562
:1009000000200146E9E7010510196941DDE90845C4
:1009100000196941BDE8F04DA2E770B521F0004330
:1009200003430CD0C1F30A550024D5EB040564EB56
:100930000403D617AD1AB34102DB0020014670BD97
:10094000201841EB025170BD064C074D06E0E068EF
:1009500040F0010394E8070098471034AC42F6D306
:10096000FFF7C8FBA05A0008C05A000870B504463B
:1009700000252068806800F0010018B320688068B6
:1009800020F001002168886001F084F8054613E03A
:1009900001F080F8401B02280ED92068806800F022
:1009A000010048B1A06A40F01000A062E06A40F087
:1009B0000100E062012070BD2068806800F0010045
:1009C0000028E5D10020F6E738B5044600250020D0
:1009D00000902068806800F0010078BB2068806883
:1009E00040F0010021688860194800681949B0FB8F
:1009F000F1F0009002E00098401E0090009800285E
:100A0000F9D101F047F8054619E001F043F8401B21
:100A1000022814D92068806800F0010078B9A06A23
:100A200040F01000A062E06A40F00100E06200BF08
:100A3000002084F8240000BF012038BD05E02068B4
:100A4000806800F001000028DFD00020F5E70000FA
:100A5000B400002040420F0000BFFEE710B5024680
:100A60000B460020012B08D1002104E0084C645CF7
:100A700060404C1CE1B29142F8DB43B9002104E034
:100A8000044C645C60404C1CE1B29142F8DB10BD48
:100A9000BC000020EC000020704700002DE9F04F62
:100AA0008BB0044616464FF07F5562480990089671
:100AB0000898FFF70AFECDE9040104F093FE024610
:100AC0000B46CDE906014FF080405B49FFF72FFD53
:100AD00082466A02594BFFF7B2FC0746FFF738FE21
:100AE0000A90574A5749089804F0AEFE0890002132
:100AF0000898FFF749FE47D00A98FFF7E6FD8246BF
:100B00008B460A98FFF7E1FD07466A024B4BFFF759
:100B100096FCCDE902012046FFF7D7FDCDE90001A3
:100B2000DDE90223FFF791FC52465B46CDE9040163
:100B3000FFF7FDFCCDE90601FFF70AFE4249086018
:100B40000A98FFF7C2FDCDE904010A98FFF7BDFD41
:100B500007466A02394BFFF7D1FBCDE90001204679
:100B6000FFF7B3FD8246DDE90023FFF76EFCCDE918
:100B70000201DDE90423FFF7DAFCCDE90601FFF706
:100B8000E7FD3249086003E02F4804602F48046005
:100B90000898FFF79AFD07462D4A2E4BFFF755FCA4
:100BA0002D4A2E4BCDE90601FFF7A8FB8246FFF741
:100BB000CFFD81460998FFF788FD074688464846DD
:100BC000FFF783FD264A274BCDE90201FFF737FCEB
:100BD0003A464346CDE90401FFF737FC824600223E
:100BE000214BFFF78BFBCDE90601FFF74FFD1F49B6
:100BF000086085F000472A4639461348006804F02B
:100C000023FE1149086085F000472A4639460F48FF
:100C1000006804F019FE0D49086041F678624FF44F
:100C2000E1611248006804F023FE104908600BB02F
:100C3000BDE8F08F85BBEE44E17AC43F3D0AB73F83
:100C4000E3A5BB3EE3A5BBBE1000002014000020BE
:100C50000AD7A3703D8A10C0AE47E17A14AEF93FBF
:100C6000A7E8482EFF21F93F00C0B24060000020F5
:100C700010B54FF4807000F057FD10BD72B600BF84
:100C8000FEE7000010B50446094800F099FB322148
:100C9000074800F0D5FA00BF054800F0EFF900F46E
:100CA00000700028F8D0024800F0EBF980B210BDC7
:100CB0000C0100202DE9F04704460D46174804F0CA
:100CC00007FD8246FFF7A2FC81461549FFF7A6FA09
:100CD00080461449FFF7A2FA07461349FFF79EFA28
:100CE00006461249FFF7CCFA2060114804F0F0FCE8
:100CF0008246FFF78BFC81460949FFF78FFA804651
:100D00000849FFF78BFA07460749FFF787FA0646B7
:100D10000649FFF7B5FA2860BDE8F08700080040F3
:100D200000004843F90F494096438B3D0000F044D2
:100D3000000400402DE9F04F85B00420FFF7A2FF2A
:100D40000190FFF77DFC4FF066320E4BCDE90201BA
:100D5000FFF77BFB804600220B4BFFF776FB064636
:100D600000220A4BFFF771FB04460022084BFFF7F5
:100D7000DEFB8246FFF7ECFC0490049805B0BDE86A
:100D8000F08F000066660A400000184000005940DD
:100D90000000B04070B504460D46FFF7CBFF144984
:100DA00008604FF07E5113480068FFF7DFF91149E2
:100DB00008600F48016810480068FFF7D7F90E492E
:100DC00008602846FFF722FC06460A4801683046BC
:100DD000FFF7DAFC0AD1094907480068FFF750FA23
:100DE00020600020044908600249086070BD0000CE
:100DF000980000209C000020A000002000401C461D
:100E0000F8B5044600260020009000BF94F82400A6
:100E1000012801D10220F8BD012084F8240000BF80
:100E20002046FFF7A3FD06462046FFF7CDFD064608
:100E3000002E69D1A06A20F4885040F00200A06220
:100E4000022000F003FF34490968B1FBF0F04000D4
:100E5000009002E00098401E009000980028F9D110
:100E60002068806840F008002168886000F012FE69
:100E7000054616E000F00EFE401B0A2811D9206836
:100E8000806800F0080060B1A06A20F0020040F025
:100E90001000A06200BF002084F8240000BF0120E1
:100EA000B9E72068806800F008000028E2D12068D7
:100EB000806840F004002168886000F0EBFD054682
:100EC00016E000F0E7FD401B0A2811D92068806871
:100ED00000F0040060B1A06A20F0020040F01000B1
:100EE000A06200BF002084F8240000BF012092E728
:100EF0002068806800F004000028E2D1A06A20F099
:100F0000020040F00100A06200BF002084F824002D
:100F100000BF30467FE70000B400002038B502462D
:100F200000230020009000BF92F82400012801D186
:100F3000022038BD012082F8240000BF486807283D
:100F400012D21068406B0C79641E04EB84051F24D8
:100F5000AC40A0430D796D1E05EB85050C68AC40D7
:100F600020431468606327E048680D2812D2106897
:100F7000006B0C79E41F04EB84051F24AC40A043F4
:100F80000D79ED1F05EB85050C68AC402043146816
:100F9000206311E01068C06A0C790D3C04EB8405F5
:100FA0001F24AC40A0430D790D3D05EB85050C6871
:100FB000AC4020431468E06208680A2812D3106825
:100FC000C0680C780A3C04EB44050724AC40A043FD
:100FD0000D780A3D05EB45058C68AC40204314684C
:100FE000E0600FE0106800690C7804EB440507240A
:100FF000AC40A0430D7805EB45058C68AC40204320
:10100000146820610868102802D00868112827D1C8
:10101000174C1068A0421ED11068806800F40000D0
:10102000F0B91068806840F400001468A060086897
:10103000102815D10F4800680F4CB0FBF4F000EBFE
:1010400080004000009002E00098401E0090009850
:101050000028F9D104E0906A40F02000906201235A
:1010600000BF002082F8240000BF184661E700009E
:1010700000240140B400002040420F000146886A6D
:10108000704701460868C06C704700002DE9F041C8
:101090000446002700250026A84614B90120BDE813
:1010A000F081A06810B1207D00B100BFA06A30B906
:1010B0000020E06284F82400204600F089F82046F1
:1010C000FFF754FC0746A06A00F01000002873D117
:1010D000002F71D1A06A20F4885040F00200A06275
:1010E000E16960680843217B40EA41000643A0684B
:1010F000B0F5807F02D0A068012802D14FF4807043
:1011000000E000200543207D012811D1207B38B963
:10111000A069401E4FF4006141EA4030054307E0FA
:10112000A06A40F02000A062E06A40F00100E062A6
:101130002068406820F4694028432168486020689E
:10114000806821490840304321688860A068B0F574
:10115000807F02D0A068012802D14FF4807000E0A7
:101160000020B0F5807F03D1208A401E4FEA00584E
:101170002068C06A20F4700040EA08002168C86254
:101180002068806811490840B04208D10020E06220
:10119000A06A20F0020040F00100A06211E0A06A05
:1011A00020F0020040F01000A062E06A40F0010070
:1011B000E062012705E0FFE7A06A40F01000A062AE
:1011C000012738466BE70000FDF7E1FFFE0E1FFF29
:1011D00010B586B00446002002900390049005905C
:1011E00014492068884222D100BF1348806940F426
:1011F0000070114988610846806900F40070019010
:1012000000BF00BF00BF0846806940F0040088614D
:101210000846806900F00400019000BF00BF102064
:1012200002900320039002A9044800F08BFA06B054
:1012300010BD0000002401400010024000080140E1
:10124000F8B504460D46002600200090002700F067
:1012500021FC06462068806800F4807050B1A06AC6
:1012600040F02000A06200BF002084F8240000BFEE
:101270000120F8BD2068406800F4807020BB206821
:10128000C06A00F47000F8B917E0681CA8B125B175
:1012900000F000FC801BA8420FD92068006800F015
:1012A000020050B9A06A40F00400A06200BF002014
:1012B00084F8240000BF0320DBE72068006800F00A
:1012C00002000028E1D053E0022000F0BFFC3849C2
:1012D0000968B1FBF0F021680969364A114091B9FB
:1012E0002168C9689211114069B921680969324AB7
:1012F000114031B92168C9689211114009B914210E
:1013000017E0292115E0216809692B4A114021B90C
:101310002168C9689211114041B121680969274AC1
:10132000114029B92168C968114009B9542100E068
:10133000FC2100FB01F718E0681C98B125B100F012
:10134000A9FB801BA8420DD90098B8420AD2A06A16
:1013500040F00400A06200BF002084F8240000BF19
:10136000032086E70098401C00900098B842E3D321
:101370006FF0120021680860A06A40F40070A0625B
:101380002068806800F46020B0F5602F0DD1207BCC
:1013900058B9A06A20F48070A062A06A00F480505E
:1013A00018B9A06A40F00100A062002061E70000C7
:1013B000B400002024499224922449124992240026
:1013C00070B50446002500BF94F82400012801D11F
:1013D000022070BD012084F8240000BF2046FFF7E2
:1013E000F3FA0546002D77D1A06A40F20121884327
:1013F00040F48070A0623C492068884208D13B4894
:10140000006800F4702008B9012002E0002000E02C
:10141000012078B1A06A20F48010A06220684068A2
:1014200000F4806000B3A06A20F4005040F48050C3
:10143000A06219E0A06A40F48010A0622B49091F45
:101440002068884203D028492068884204D1274870
:10145000006800F4806000E0002028B1A06A20F459
:10146000005040F48050A062A06A00F4805020B187
:10147000E06A20F00600E06201E00020E06200BFC8
:10148000002084F8240000BFC01E21680860206886
:10149000806800F46020B0F5602F16D112492068F2
:1014A000884208D11148006800F4702008B9012072
:1014B00002E0002000E0012038B12068806840F49C
:1014C000A000216888600CE006E02068806840F495
:1014D00080102168886004E000BF002084F82400A8
:1014E00000BF284675E700000028014004240140A1
:1014F0000146002291F82100022808D004208863C8
:1015000000BF002081F8200000BF0120704708685C
:10151000006820F00E000B6818600868006820F072
:1015200001000B68186091F8403001209840CB6BA7
:101530005860012081F8210000BF002081F82000C0
:1015400000BF1046E2E7000070B50446002594F89D
:101550002100022803D00420A063012548E0206870
:10156000006820F00E00216808602068006820F004
:101570000100216808601F492068884201D10120CC
:1015800026E01C4914312068884201D110201FE058
:10159000184928312068884201D1801518E0154982
:1015A0003C312068884201D1801411E0114950314A
:1015B0002068884202D14FF4803009E00D4964313F
:1015C0002068884202D14FF4801001E04FF0807013
:1015D000084908394860012084F8210000BF002034
:1015E00084F8200000BF606B10B12046616B884713
:1015F000284670BD0800024070B5044600F04AFA63
:1016000006462546681C10B104480078054400BF12
:1016100000F040FA801BA842FAD370BDB000002051
:1016200010B50446B4F5807F5AD12E480068401C9E
:101630002C4908602C480068B0F5FA6F0ADA2A488D
:101640000068401C28490860284829490A68026047
:101650008988818064212748FFF79CFB264802F097
:101660004DFA234802F06EFA24492548FFF722FB81
:10167000244802682448016824480068FFF70EFAED
:101680001C48006803F008F8C0B9214801681C48EC
:10169000006802F0F3F81F4908601F480168174806
:1016A000006802F05BF91D4908601D4802680846A1
:1016B00001681848006802F0BDFD11E009480068A3
:1016C000142807D14FF48051164800F0D3F90020B8
:1016D000044908604FF496520021084602F0AAFD22
:1016E00010BD00005C00002020000020360000201B
:1016F00024000020780000202A0000200C00002098
:101700000800002074000020700000206C00002001
:101710001000002000000020140000200400002021
:10172000600000200008014010B50446044800682D
:10173000204020B1024804602046FFF771FF10BD31
:10174000140401402DE9F8470346002294466EE157
:101750004FF0010808FA02F4D1F8008008EA04000A
:10176000A0427DD1DFF8DCA2D1F80480A8EB0A0901
:10177000D0453AD014DCB8F1030F50D009DCB8F1F1
:10178000000F31D0B8F1010F1CD0B8F1020F49D1D0
:1017900020E0B8F1110F18D0B8F1120F42D11EE0BD
:1017A000B9F5881F25D006DCB9F5803F20D0B9F502
:1017B000801F37D11AE0B9F5001F18D0B9F5041F02
:1017C00030D117E0D1F80CC02DE0D1F80C8008F131
:1017D000040C28E0D1F80C8008F1080C23E0D1F8C3
:1017E0000C8008F10C0C1EE000BF00BF00BF00BF62
:1017F00000BF00BFD1F80880B8F1000F02D14FF050
:10180000040C0BE0D1F80880B8F1010F03D14FF0C0
:10181000080C1C6102E04FF0080C5C6103E04FF023
:10182000000C00E000BF00BFFF2801D8984601E08F
:1018300003F104084646FF2802D84FEA820803E075
:10184000A2F108084FEA88084746D6F800804FF012
:101850000F0909FA07F928EA09080CFA07F900E064
:1018600088E048EA0908C6F80080D1F8048008F04A
:101870008058B8F1805F7DD100BFDFF8CC81D8F807
:10188000188048F00108DFF8C091C9F81880C846F0
:10189000D8F8188008F00108CDF8008000BF00BF1C
:1018A0004FEAB9384FEA920958F829504FEA82783E
:1018B0004FEA18794FF00F0808FA09F825EA0805E9
:1018C000DFF88881434502D14FF0000816E0DFF8C9
:1018D0008081434502D14FF001080FE0DFF87481A9
:1018E000434502D14FF0020808E0DFF86C81434520
:1018F00002D14FF0030801E04FF004084FEA82796B
:101900004FEA197908FA09F848EA0505DFF84C8129
:101910004FEA920948F82950D1F8048008F4801859
:10192000B8F5801F0AD1DFF83881D8F8008048EA7E
:101930000008DFF82C91C9F8008009E0DFF8208169
:10194000D8F8008028EA0008DFF81491C9F8008070
:10195000D1F8048008F40018B8F5001F10D1DFF8A2
:10196000008108F10408D8F8008048EA0008DFF890
:10197000F09000E05AE009F10409C9F800800DE098
:10198000DFF8DC8008F10408D8F8008028EA0008B5
:10199000DFF8CC9009F10409C9F80080D1F804807F
:1019A00008F40038B8F5003F0ED1DFF8B480A8F194
:1019B0000408D8F8008048EA0008DFF8A490A9F1EC
:1019C0000409C9F800800DE0DFF89480A8F104084C
:1019D000D8F8008028EA0008DFF88490A9F104090B
:1019E000C9F80080D1F8048008F48038B8F5803F49
:1019F0000ED1DFF86C80A8F10808D8F8008048EA1A
:101A00000008DFF85C90A9F10809C9F800800DE032
:101A1000DFF84C80A8F10808D8F8008028EA000810
:101A2000DFF83C90A9F10809C9F80080521CD1F8F0
:101A3000008028FA02F8B8F1000F7FF489AEBDE803
:101A4000F88700000000111000100240000801405B
:101A5000000C01400010014000140140080001404A
:101A600008040140024693680B400BB1012000E0DE
:101A70000020704710B5C26821EA020302EA01049F
:101A800043EA0443036110BD0AB1016101E00B04A4
:101A9000036170470148006870470000A8000020FB
:101AA0000348006803490978084401490860704701
:101AB000A8000020B000002010B50848006840F0E1
:101AC000100006490860032000F0ACF8022000F086
:101AD00007F800F02BF8002010BD000000200240A5
:101AE00070B504460E4800784FF47A71B1FBF0F0FF
:101AF0000C490968B1FBF0F5284600F013FD08B168
:101B0000012070BD102C07D200222146501E00F08B
:101B10004BF80548046001E00120F2E70020F0E7FF
:101B2000B0000020B4000020AC00002008B500BFC9
:101B30001348806940F001001149886108468069B6
:101B400000F00100009000BF00BF00BF0846C06960
:101B500040F08050C8610846C06900F08050009095
:101B600000BF00BF052000F05DF800BF05494868D0
:101B700020F0E06040F08070486000BF08BD0000C9
:101B8000001002400000014001460846002809DB21
:101B900000F01F0301229A4043099B0003F1E02358
:101BA000C3F8002100BF70472DE9F05F80460D4665
:101BB0001646002703F002F8074639462A46334600
:101BC00001F00700C0F1070ABAF1040F02D94FF083
:101BD000040A01E0C0F1070AD14600F1040ABAF193
:101BE000070F02D24FF0000A01E0A0F1030AD44629
:101BF0004FF0010A0AFA09FAAAF1010A0AEA020AEE
:101C00000AFA0CFA4FF0010B0BFA0CFBABF1010BCB
:101C10000BEA030B4AEA0B042146404602F0D6FFCA
:101C2000BDE8F09F00BF00F00702064B19684FF6B1
:101C3000FF031940044B0B4343EA0221014B196097
:101C400000BF70470CED00E00000FA052DE9F047F9
:101C500006464FF00008002500270024A146012E6B
:101C600031D0022E56D0102E5FD132484468006821
:101C700000F0807008B33048C4F38341475C04F43B
:101C8000803078B12B484068C0F340402B4911F8B0
:101C9000008004F4803040B12948B0FBF8F000FB2C
:101CA00007F502E0274807FB00F52248406800F4EA
:101CB0008000B0F5800F01D1A94603E06800032140
:101CC000B0FBF1F932E01B48046A04F44070B0F54F
:101CD000807F05D104F0020010B14FF4004918E0F4
:101CE00004F44070B0F5007F07D11248406A00F05C
:101CF000020010B149F640490BE004F44070B0F521
:101D0000407F06D10B48006800F4003008B14FF264
:101D100024490BE000F08CF906494968C1F3813190
:101D2000491C4900B0FBF1F900E000BF00BF484684
:101D3000BDE8F08700100240B6580008C6580008F9
:101D400000127A0000093D00F8B50446002600257F
:101D5000207800F0010000286BD000274348C069BC
:101D600000F0805070B900BF4048C06940F080501A
:101D70003E49C8610846C06900F08050009000BF2D
:101D800000BF01273A48006800F48070B0B93848B5
:101D9000006840F4807036490860FFF77BFE064615
:101DA00006E0FFF777FE801B642801D90320F8BD09
:101DB0002F48006800F480700028F2D02B48006A99
:101DC00000F440752DB3A08800F44070A84220D0E4
:101DD0002648006A20F4407501202649086000204A
:101DE00008602248056205F0010090B1FFF752FE3D
:101DF000064608E0FFF74EFE801B41F2883188421C
:101E000001D90320D3E71948006A00F00200002836
:101E1000F0D01648006A20F4407061680843134906
:101E20000862012F04D10846C06920F08050C861C3
:101E300000BF207800F00200022807D10B4840685C
:101E400020F44040A168084308494860207800F029
:101E50001000102807D10548406820F48000E16890
:101E60000843024948600020A1E70000001002403A
:101E7000007000404004424270B504460D460CB963
:101E8000012070BD5A48006800F00700A8420ED239
:101E90005748006820F00700284355490860084665
:101EA000006800F00700A84201D00120E9E720788F
:101EB00000F0020002281DD1207800F00400042860
:101EC00005D14C48406840F4E0604A4948602078B9
:101ED00000F00800082805D14648406840F46050EA
:101EE000444948604348406820F0F000A168084336
:101EF00040494860207800F0010078B3606801280C
:101F000006D13C48006800F4003090B90120B8E7E1
:101F10006068022806D13748006800F0007040B9B8
:101F20000120AEE73348006800F0020008B9012044
:101F3000A7E73048406820F00300616808432D4956
:101F40004860FFF7A7FD064609E0FFF7A3FD801BE9
:101F500041F28831884202D9032092E707E0254800
:101F6000406800F00C006168B0EB810FEDD12048B3
:101F7000006800F00700A8420ED91D48006820F054
:101F8000070028431A4908600846006800F0070067
:101F9000A84201D0012074E7207800F00400042852
:101FA00007D11448406820F4E060E1680843114913
:101FB0004860207800F00800082808D10D484068E3
:101FC00020F46050216940EAC1000A49486000F0ED
:101FD0003FF808494968C1F30311074A515CC840FA
:101FE0000649086006480068FFF77AFD002048E7C8
:101FF0000020024000100240C8580008B400002031
:10200000AC0000200148006870470000B4000020C8
:1020100000B5FFF7F7FF04494968C1F30221034AFD
:10202000515CC84000BD000000100240D8580008B4
:1020300000B5FFF7E7FF04494968C1F3C221034A2D
:10204000515CC84000BD000000100240D858000894
:1020500070B500210022002400230020134D696880
:1020600001F00C05F5B1042D02D0082D19D101E0C5
:102070000F4819E00F4DC1F38346AB5D01F4803585
:1020800055B10A4D6D68C5F340450B4E725D084D64
:102090005D43B5FBF2F402E0084D03FB05F4204676
:1020A00002E000BF024800BF00BF70BD0010024048
:1020B00000127A00A4580008B458000800093D0036
:1020C000F8B504460CB90120F8BD207800F00100F5
:1020D000002878D0F848406800F00C0004280CD0A4
:1020E000F548406800F00C00082811D1F24840681B
:1020F00000F48030B0F5803F0AD1EF48006800F46A
:10210000003000285FD0606800285CD10120DBE748
:1021100000BF6068B0F5803F06D1E748006840F432
:102120008030E549086028E0606858B9E2480068F6
:1021300020F48030E04908600846006820F48020E0
:1021400008601AE06068B0F5A02F0BD1DA4800688B
:1021500040F48020D84908600846006840F4803088
:1021600008600AE0D448006820F48030D249086052
:102170000846006820F48020086000BF606888B1CD
:10218000FFF788FC054606E0FFF784FC401B642847
:1021900001D9032098E7C848006800F400300028FF
:1021A000F2D010E0FFF776FC054606E0FFF772FC80
:1021B000401B642801D9032086E7BF48006800F46B
:1021C00000300028F2D1207800F00200022857D118
:1021D000B948406800F00C0050B1B748406800F0C2
:1021E0000C00082818D1B448406800F4803098B931
:1021F000B148006800F0020020B12069012801D038
:10220000012061E7AC48006820F0F800616940EA0D
:10221000C100A949086033E02069E8B10120A7495D
:102220000860FFF737FC054606E0FFF733FC401B6C
:10223000022801D9032047E79F48006800F0020008
:102240000028F2D09C48006820F0F800616940EA5C
:10225000C1009949086013E0002098490860FFF721
:1022600019FC054606E0FFF715FC401B022801D9C2
:10227000032029E79048006800F002000028F2D10E
:10228000207800F0080008282DD1A069B8B10120FD
:102290008B490860FFF7FEFB054606E0FFF7FAFBF7
:1022A000401B022801D903200EE78348406A00F052
:1022B00002000028F2D0012001F0A6FF13E0002068
:1022C0007F490860FFF7E6FB054606E0FFF7E2FB03
:1022D000401B022801D90320F6E67748406A00F047
:1022E00002000028F2D1207800F00400042873D105
:1022F00000277148C06900F0805070B900BF6E4877
:10230000C06940F080506C49C8610846C06900F05F
:102310008050009000BF00BF01276A48006800F4A9
:102320008070B0B96748006840F480706549086003
:10233000FFF7B0FB054606E0FFF7ACFB401B642847
:1023400001D90320C0E65F48006800F480700028CF
:10235000F2D000BFE068012806D15748006A40F07B
:1023600001005549086227E0E06858B95248006A00
:1023700020F00100504908620846006A20F004007D
:10238000086219E0E06805280BD14B48006A40F06C
:102390000400494908620846006A40F001000862EA
:1023A0000AE04548006A20F00100434908620846F7
:1023B000006A20F00400086200BFE068A0B1FFF7E7
:1023C00069FB054609E0FFF765FB401B41F28831D8
:1023D000884202D9032077E622E03748006A00F0FD
:1023E00002000028EFD012E0FFF754FB054608E09A
:1023F000FFF750FB401B41F28831884201D903208E
:1024000062E62D48006A00F002000028F0D1012F9A
:1024100005D12948C06920F080502749C86100BF14
:10242000E069C8B32448406800F00C00082860D078
:10243000E069022848D1002020490866FFF72AFBFE
:10244000054606E0FFF726FB401B022801D90320C2
:102450003AE61948006800F000700028F2D1206ABE
:10246000B0F5803F07D11448406820F40030A168DF
:10247000084311494860D4E9080108430E494968F6
:1024800021F4741108430C49486001200B49086687
:10249000FFF700FB054607E03DE0FFF7FBFA401BB6
:1024A000022801D903200FE60348006800F00070FD
:1024B0000028F2D02FE0000000100240000042424D
:1024C0008004424200700040002014490866FFF773
:1024D000E1FA054606E0FFF7DDFA401B022801D9C4
:1024E0000320F1E50E48006800F000700028F2D1EA
:1024F00011E0E069012800D1E6E50948466806F4E4
:102500008031206A814204D106F47011606A8142F0
:1025100001D00120D8E50020D6E5000000004242AD
:102520000010024070B504462546681EB0F1807F59
:1025300001D301200FE0681E4FF0E02148610F2118
:102540004FF0FF3002F042FB00204FF0E0218861A5
:1025500007200861002070BD7047704710B5034622
:10256000002200BF93F83C00012801D1022010BDD9
:10257000012083F83C0000BF22F0FF00CC6840EA55
:10258000040222F440708C6840EA040222F4806065
:102590004C6840EA040222F400600C6840EA04023D
:1025A00022F480500C6940EA040222F400504C6985
:1025B00040EA040222F48040CC6940EA0402186830
:1025C000426400BF002083F83C0000BF00BFCEE79C
:1025D00030B502460B4600BF92F83C00012801D1FD
:1025E000022030BD012082F83C0000BF022082F8AA
:1025F0003D00106844681068816824F07004186811
:10260000044310684460104D1068A8420BD0106855
:10261000B0F1804F07D00D4D1068A84203D00C4D8B
:102620001068A84205D121F0800158680143106864
:102630008160012082F83D0000BF002082F83C004C
:1026400000BF00BFCDE70000002C014000040040A7
:102650000008004070B504460D4615B994F84200D4
:102660000BE0042D02D14320005D06E0082D02D1CD
:102670004420005D01E04520005D012801D00120DB
:1026800070BD1DB9022084F842000EE0042D03D174
:1026900002214320015508E0082D03D102214420E6
:1026A000015502E0022145200155042229462068F7
:1026B00001F0E9FE2068406C40F400402168486465
:1026C0001249206888420BD02068B0F1804F07D0B3
:1026D0000F492068884203D00E49206888420CD1F7
:1026E0002068806800F00706062E0CD0206800687D
:1026F00040F001002168086005E02068006840F0B3
:102700000100216808600020BAE70000002C0140A9
:10271000000400400008004010B504460CB9012038
:1027200010BD94F83D0028B9002084F83C002046F4
:1027300000F026F8022084F83D00211D206801F0F9
:1027400057FE012084F8460000BF84F83E000121B6
:102750003F200155402001554120015500BF00BFD9
:10276000012084F8420043200155442001554520B2
:10277000015500BF012084F83D000020D0E7000093
:1027800038B504460D492068884215D100BF0C4871
:10279000806940F400600A4988610846806900F455
:1027A0000060009000BF00BF002211461920FFF713
:1027B000FBF91920FFF7E8F938BD0000002C0140B3
:1027C00000100240014691F83D00012801D001208F
:1027D0007047022081F83D000868C06840F00100A1
:1027E0000B68D860124B086898420BD00868B0F1AB
:1027F000804F07D00F4B0868984203D00E4B0868F3
:1028000098420CD10868806800F00702062A0CD0B4
:102810000868006840F001000B68186005E008686F
:10282000006840F001000B6818600020D0E700004D
:10283000002C014000040040000800402DE9F04158
:1028400004460D46002700BF94F83C00012802D141
:102850000220BDE8F081012084F83C0000BF022086
:1028600084F83D002068866826F0770626F47F46C7
:10287000206886602868502833D00CDC202850D08F
:1028800004DC00284BD0102851D149E0302849D031
:1028900040284CD139E060282DD0702807D0B0F501
:1028A000805F03D0B0F5005F41D10DE041E0D5E994
:1028B00002136A68206801F0F7FD2068866846F018
:1028C00077062068866034E0D5E902136A682068DC
:1028D00001F0EAFD2068806840F48040216888604B
:1028E00027E0EA686968206801F0AEFE50212068A0
:1028F00001F0E5FD1DE0EA686968206801F0B7FEB7
:102900006021206801F0DBFD13E0EA686968206857
:1029100001F09AFE4021206801F0D1FD09E000BFDE
:1029200000BF00BF2968206801F0C9FD01E0012750
:1029300000BF00BF012084F83D0000BF002084F8E4
:102940003C0000BF384684E72DE9F04104460D46BF
:1029500014B90120BDE8F08194F83D0028B90020A9
:1029600084F83C00204600F051F8022084F83D0035
:102970002068806844F20701884321688860211D2F
:10298000206801F035FD2068D0F80880206886694D
:102990002068076A286840EA080840F20330864346
:1029A000A969A86840EA0120064340F60C40864326
:1029B0004FF2F0008643E969E86840EA01200643E7
:1029C00028690001296A40EA0130064327F02207FE
:1029D0006969686840EA011007432068C0F8088008
:1029E0002068866120680762012084F8460084F828
:1029F0003E0001213F200155012084F84200432080
:102A00000155012084F83D000020A3E710B586B0F1
:102A10000446002002900390049005902949206804
:102A2000884224D100BF2848C06940F002002649EE
:102A3000C8610846C06900F00200019000BF00BFF5
:102A400000BF0846806940F004008861084680693C
:102A500000F00400019000BF00BFC02002900020E1
:102A60000390049002A91948FEF76CFE27E018496C
:102A70002068884223D100BF1348C06940F0040099
:102A80001149C8610846C06900F00400019000BF08
:102A900000BF00BF0846806940F008008861084612
:102AA000806900F00800019000BF00BFC0200290C4
:102AB00000200390049002A90648FEF743FE06B0EA
:102AC00010BD00000004004000100240000801405A
:102AD00000080040000C01402DE9F04304460D467B
:102AE00094F83E603F20075D94F84280432010F840
:102AF00004906DB9012E02D1B8F1010F02D001206E
:102B0000BDE8F083022084F83E0084F8420025E00E
:102B1000042D0CD1012F02D1B9F1010F01D00120F8
:102B2000EEE702213F2001554320015516E0012E1A
:102B300007D1012F05D1B8F1010F02D1B9F1010F71
:102B400001D00120DCE7022084F83E0002213F2072
:102B50000155022084F842004320015515B1042D8F
:102B60000CD105E001220021206801F07BFC10E07F
:102B700001220421206801F075FC0AE001220021F5
:102B8000206801F06FFC01220421206801F06AFC3A
:102B900000BF00BF2068006840F0010021680860A5
:102BA0000020ADE7704710B5044620680069C0F307
:102BB0004000D8B12068C068C0F34000B0B16FF0E9
:102BC000020021680861012020772068806900F0F8
:102BD000030018B12046FFF7E5FF05E0204600F0AE
:102BE00003F9204600F0CCF9002020772068006926
:102BF000C0F38000D8B12068C068C0F38000B0B1D5
:102C00006FF0040021680861022020772068806945
:102C100000F4407018B12046FFF7C4FF05E02046DD
:102C200000F0E2F8204600F0ABF9002020772068A1
:102C30000069C0F3C000D8B12068C068C0F3C0000C
:102C4000B0B16FF008002168086104202077206887
:102C5000C06900F0030018B12046FFF7A3FF05E0AC
:102C6000204600F0C1F8204600F08AF900202077C5
:102C700020680069C0F30010D8B12068C068C0F3B4
:102C80000010B0B16FF010002168086108202077B3
:102C90002068C06900F4407018B12046FFF782FF39
:102CA00005E0204600F0A0F8204600F069F9002079
:102CB00020772068006900F0010058B12068C068E2
:102CC00000F0010030B16FF001002168086120467A
:102CD00000F0C2F920680069C0F3C01058B1206844
:102CE000C068C0F3C01030B16FF080002168086187
:102CF0002046FFF731FC20680069C0F3801058B10E
:102D00002068C068C0F3801030B16FF040002168C7
:102D10000861204600F0C0F920680069C0F3401047
:102D200058B12068C068C0F3401030B16FF0200087
:102D3000216808612046FFF710FC10BD10B586B071
:102D400004460020029003900490059021492068D9
:102D5000884221D100BF2048806940F008001E4908
:102D600088610846806900F00800019000BF00BF3C
:102D70000120029002200390059002A91748FEF757
:102D8000E1FC00BF1649486820F0C00040F0E06058
:102D900040F0400048601AE02068B0F1804F16D142
:102DA00000BF0D48806940F004000B498861084667
:102DB000806900F00400019000BF00BF0F20029066
:102DC00002200390059002A90648FEF7BBFC06B05E
:102DD00010BD0000002C014000100240000C01401A
:102DE000000001400008014070472DE9F041044611
:102DF0000D461646002700BF94F83C00012802D17A
:102E00000220BDE8F081012084F83C0000BF36B10B
:102E1000042E1BD0082E31D00C2E5ED145E0294661
:102E2000206801F055FB2068806940F008002168A7
:102E300088612068806920F004002168886120682A
:102E40008069296908432168886148E0294620682B
:102E500001F06EFB2068806940F4006021688861A1
:102E60002068806920F4806021688861206880691A
:102E7000296940EA01202168886130E029462068FC
:102E800001F08AFB2068C06940F008002168C86131
:102E90002068C06920F004002168C8612068C0690A
:102EA000296908432168C86119E02946206801F0B2
:102EB000A7FB2068C06940F400602168C8612068F1
:102EC000C06920F480602168C8612068C0692969F0
:102ED00040EA01202168C86101E0012700BF00BF6E
:102EE00000BF002084F83C0000BF384689E710B5D9
:102EF00004460CB9012010BD94F83D0028B900200B
:102F000084F83C00204600F025F8022084F83D00BB
:102F1000211D206801F06CFA012084F8460000BFF2
:102F200084F83E0001213F200155402001554120F9
:102F3000015500BF00BF012084F842004320015525
:102F4000442001554520015500BF012084F83D0073
:102F50000020D0E708B50168B1F1804F0DD100BF66
:102F60000649C96941F00101044AD1611146C969A4
:102F700001F00101009100BF00BF08BD0010024038
:102F80007047000070B504460D4615B994F83E0030
:102F90000BE0042D02D13F20005D06E0082D02D198
:102FA0004020005D01E04120005D012801D00120AA
:102FB00070BD1DB9022084F83E000EE0042D03D13F
:102FC00002213F20015508E0082D03D102214020B5
:102FD000015502E0022141200155012229462068C5
:102FE00001F040FA19492068884201D1012000E02F
:102FF000002028B12068406C40F4004021684864FB
:103000001249206888420BD02068B0F1804F07D069
:103010000F492068884203D00E49206888420CD1AD
:103020002068806800F00706062E0CD02068006833
:1030300040F001002168086005E02068006840F069
:103040000100216808600020B2E70000002C014068
:10305000000400400008004010B504460A488442BD
:1030600010D10A480068B0F5FA6F07D101221103A8
:103070000748FEF709FD00200649086002F04AFAF9
:1030800001F0E6FC10BD00003C0100202000002003
:10309000000801406400002070477047704700003E
:1030A0002DE9F84F0446206805682068C668206846
:1030B00047694FF00009CA4605F00F09B9F1000F42
:1030C0000AD105F0200038B106F0200020B12046DA
:1030D00001F06AFBBDE8F88FB9F1000F7BD007F073
:1030E000010018B906F49070002874D005F00100B2
:1030F00030B106F4807018B1606C40F0010060647B
:1031000005F0040030B107F0010018B1606C40F028
:103110000200606405F0020030B107F0010018B150
:10312000606C40F00400606405F0080048B106F0EF
:10313000200010B907F0010018B1606C40F00800E1
:103140006064606C002845D005F0200028B106F0CE
:10315000200010B1204601F027FB20684069C0F331
:10316000801A606C00F0080010B9BAF1000F2CD082
:10317000204601F0D3FA2068406900F0400000B317
:1031800000BF00BF2168143151E8001F21F040004A
:103190002168143141E80002002AF3D100BFE06B3E
:1031A00050B17748E16B4863E06BFEF7CDF988B129
:1031B000E06B416B88470DE02046FFF76FFF09E0A9
:1031C00009E02046FFF76AFF04E02046FFF766FFAC
:1031D000002060647EE7206B012877D105F01000A5
:1031E000002873D006F010000028FAD000BF00209D
:1031F000009020680068009020684068009000BF40
:1032000000BF2068406900F0400000285FD0E06BFC
:10321000006840681FFA80F8B8F1000F55D0A08D03
:10322000404552DDA4F82E80E06B8069202843D011
:1032300000BF00BF21680C3151E8001F21F48070ED
:1032400021680C3141E80002002AF3D100BF00BF21
:1032500000BF2168143151E8001F21F001002168EE
:10326000143141E80002002AF3D100BF00BF00BFC3
:103270002168143151E8001F21F040002168143109
:1032800041E80002002AF3D100BF202084F8420068
:103290000020206300BF00BF21680C3151E8001FEF
:1032A00021F0100021680C3141E80002002AF3D11E
:1032B00000BFE06BFEF71CF902206063A08DE28D79
:1032C000801A81B22046FFF7E8FE03E742E0A08DB6
:1032D000E18D401A1FFA80F8E08DD0B3B8F1000FED
:1032E00037D000BF00BF21680C3151E8001F21F426
:1032F000907021680C3141E80002002AF3D100BF30
:1033000000BF00BF2168143151E8001F21F0010007
:103310002168143141E80002002AF3D100BF2020C7
:1033200084F842000020206300BF00BF21680C31F8
:1033300051E8001F21F0100021680C3141E8000223
:10334000002AF3D100BF0220606341462046FFF708
:10335000A4FEBFE605F0800030B106F0800018B191
:10336000204601F03DFBB5E605F0400030B106F027
:10337000400018B1204601F007FAABE600BFA9E60D
:103380000947000810B504460CB9012010BDA0691A
:1033900000B100E000BF94F8410028B9002084F893
:1033A0004000204600F02AF8242084F841002068DC
:1033B000C06820F400502168C860204601F072FA0D
:1033C0002068006920F49040216808612068406905
:1033D00020F02A00216848612068C06840F400504D
:1033E0002168C86000206064202084F8410084F8CF
:1033F00042000020606300BFC8E7000010B586B03F
:1034000004460020029003900490059038492068FB
:10341000884237D100BF3748806940F48040354941
:1034200088610846806900F48040019000BF00BFB9
:1034300000BF0846806940F0040088610846806942
:1034400000F00400019000BF00BF48150290022068
:1034500003900320059002A92748FEF773F94FF463
:103460008060029000200390049002A92248FEF799
:1034700069F9002211462520FEF796FB2520FEF76C
:1034800083FB32E01D49206888422ED100BF1948D5
:10349000C06940F480201749C8610846C06900F43B
:1034A0008020019000BF00BF00BF0846806940F047
:1034B000080088610846806900F00800019000BF9C
:1034C00000BF08150290022003900320059002A976
:1034D0000B48FEF737F94FF400600290002003908C
:1034E000049002A90648FEF72DF906B010BD0000B1
:1034F0000038014000100240000801400048004030
:10350000000C014070B504460D46164694F8420082
:1035100020280BD105B10EB9012070BD0020206319
:1035200032462946204601F03BFAF6E70220F4E74E
:103530002DE9F047054635492868884264D10026C0
:1035400001274FF00108012231493248FFF7DAFF25
:1035500031480068B0F5FA6F01DABDE8F0872C4811
:1035600000782E492E4A1278885408462C4909784A
:10357000405C7B2803D02A480078002805DD2848D5
:103580000078401C2649087002E000202449087099
:10359000234800780B2836D10020214908701F48A5
:1035A000807A7D282FD1002403E01C48005D46402E
:1035B000641C092CF9DB1948407AB04200D100277D
:1035C0000FBB1848007810B9012016490870134A3B
:1035D0001179D07801F0AEFA134908600F4A917959
:1035E000507901F0A7FA114908600C4A117AD07994
:1035F00001F0A0FA814649460B48006801F03AFA0A
:103600000B49086000BF00BF00BFA6E700380140BB
:103610007C0000205C02002020000020EC02002042
:10362000A6000020680000206C0000207000002030
:1036300074000020704700BFFEE7000010B50022B4
:103640004FF400710C48FEF71FFA00F017F8012242
:1036500011020948FEF718FA00F010F800224FF4A2
:1036600080710548FEF710FA00F008F801225102B7
:103670000148FEF709FA10BD000C0140002001E0EE
:10368000411CC8B20128FBDB7047000000B585B0C3
:1036900000BF0E48806940F008000C498861084668
:1036A000806900F00800009000BF00BF4FF4407038
:1036B0000190032004901120029001A90448FEF714
:1036C00041F800F0A1F805B000BD00000010024074
:1036D000000C014010B5012251020A48FEF7D4F94E
:1036E000FFF7CCFF012211020648FEF7CDF9FFF7E4
:1036F000C5FF00224FF480710248FEF7C5F9FFF7BD
:10370000BDFF10BD000C014070B505460024002629
:103710001AE06006040E012211021048FEF7B4F907
:10372000FFF7ACFF4FF400710C48FEF79BF908B1AE
:10373000601CC4B200224FF480710848FEF7A4F95F
:10374000FFF79CFF701CC6B2082EE2DB15B9FFF72D
:10375000C1FF01E0FFF772FF204670BD000C014081
:1037600070B5044600252AE004F0800028B101224B
:1037700051021448FEF788F905E000224FF4007169
:103780001048FEF781F9FFF779FF012211020D4879
:10379000FEF77AF9FFF772FF00224FF480710948B3
:1037A000FEF772F9072D04D1012251020548FEF7F8
:1037B0006BF96006040EFFF761FF681CC5B2082DA7
:1037C000D2DB70BD000C014010B5012251020D4842
:1037D000FEF75AF9012211020A48FEF755F9FFF7E0
:1037E0004DFF00224FF400710648FEF74DF9FFF738
:1037F00045FF00224FF480710248FEF745F9FFF7BC
:103800003DFF10BD000C014010B500224FF40071C7
:103810000748FEF739F9012211020548FEF734F98D
:10382000FFF72CFF012251020148FEF72DF910BDD0
:10383000000C014010B5012251020F48FEF724F997
:10384000FFF71CFF012211020B48FEF71DF9FFF7DD
:1038500015FF4FF400710848FEF704F908B1012480
:1038600000E0002400224FF480710348FEF70CF9B9
:10387000FFF704FF204610BD000C01402DE9F04782
:1038800004460D4629462046FCF7C5FC2949086038
:1038900008460068FCF719FF0646274A274BFCF745
:1038A00027FF0CD223480068FCF70FFF0646224A88
:1038B000234BFCF735FF02D200201E4908601D484B
:1038C000016820480068FCF7A9FC80461E48016892
:1038D00018480068FCF79CFC81461C480168484673
:1038E000FCF79CFC07464146FCF740FC064618489E
:1038F00001683046FCF73AFC154908601549144840
:103900000068FCF74BFF02D21248114908601249C7
:103910000F480068FCF738FF02D20F480C490860D6
:10392000044800680849086009480068FCF795FEEB
:10393000BDE8F087440000207B14AE47E17A843F65
:10394000E17A84BF840000204C0000208000002029
:10395000480000200000E1450000E1C52DE9F047E6
:1039600004460D4629462046FCF755FC29490860C7
:1039700008460068FCF7A9FE0646274A274BFCF7D5
:10398000B7FE0CD223480068FCF79FFE0646224A89
:10399000234BFCF7C5FE02D200201E4908601D48DB
:1039A000016820480068FCF739FC80461E48016821
:1039B00018480068FCF72CFC81461C480168484602
:1039C000FCF72CFC07464146FCF7D0FB064618489E
:1039D00001683046FCF7CAFB1549086015491448D0
:1039E0000068FCF7DBFE02D2124811490860124958
:1039F0000F480068FCF7C8FE02D20F480C49086067
:103A0000044800680849086009480068FCF725FE7A
:103A1000BDE8F087500000207B14AE47E17A843F78
:103A2000E17A84BF8C00002058000020880000202C
:103A3000540000200000E1450000E1C570B50446D7
:103A40000D4629462046FEF70DF870B90A20FDF70D
:103A5000D3FD00BF29462046FEF704F80028F9D020
:103A60000A20FDF7C9FD002070BD0120FCE710B55C
:103A70000024FFF70BFE80226B21682000F07AF90A
:103A80006420FDF7B9FD00226B21682000F072F977
:103A9000012000F02AF9002000F01EF9C82000F0F3
:103AA0004BF901223821682000F064F98022372187
:103AB000682000F05FF900226A21682000F05AF9BE
:103AC00000222321682000F055F97521682000F0BC
:103AD000A5F80446702C0DD101226B21682000F05E
:103AE00049F900226C21682000F044F9C82000F058
:103AF00023F901E0012010BD0020FCE77CB504465D
:103B00006B4606223B21682000F0ACF80546BDB9A3
:103B10009DF801009DF8001040EA012000B22080CD
:103B20009DF803009DF8021040EA012000B2608079
:103B30009DF805009DF8041040EA012000B2A08025
:103B400028467CBD7CB504466B460622432168208E
:103B500000F088F80546002D55D12C480068B0F5D6
:103B6000FA6F1BDA9DF801009DF8001040EA012071
:103B700000B220809DF803009DF8021040EA012069
:103B800000B260809DF805009DF8041040EA012015
:103B900000B2A08001201E49086034E01B48006884
:103BA000B0F5FA6F08D19DF801009DF8001040EAC9
:103BB000012000B2174908809DF803009DF802100B
:103BC00040EA012000B2134948809DF805009DF8A5
:103BD000041040EA012000B20E498880084600889F
:103BE0000D490988401A00B220800A4840880A49D5
:103BF0004988401A00B26080064880880649898852
:103C0000401A00B2A08028467CBD000020000020A1
:103C1000640000203C0000203600002070B50446FF
:103C20000D46FFF7D1FD002141EA4401C8B2FFF77C
:103C300097FDFFF7FFFD2846FFF792FDFFF7FAFD1E
:103C4000FFF7C2FD012101EB4401C8B2FFF788FD77
:103C5000FFF7F0FD0020FFF757FD0646FFF7D4FD04
:103C6000304670BD2DE9F04106460F4614461D460C
:103C7000FFF7AAFD002141EA4601C8B2FFF770FD37
:103C8000FFF7D8FD20B1FFF7BFFD0120BDE8F081AF
:103C90003846FFF765FDFFF7CDFDFFF795FD0121E4
:103CA00001EB4601C8B2FFF75BFDFFF7C3FD0DE076
:103CB000012C04D10020FFF727FD287003E001202C
:103CC000FFF722FD2870601EC4B26D1C002CEFD1DE
:103CD000FFF79AFD0020D9E710B50446E006020E72
:103CE0001C21682000F046F810BD10B50446E0061F
:103CF000020E1B21682000F03DF810BD70B504468F
:103D00000025BC2C01DB012510E0622C01DB022523
:103D10000CE02A2C01DB032508E0142C01DB042530
:103D200004E00A2C01DB052500E006252A461A21BD
:103D3000682000F01FF870BD70B50446B4F57A7FB6
:103D400001DD4FF47A74042C00DA04244FF47A7005
:103D500090FBF4F0401EC5B22A461921682000F0FD
:103D600009F80546264604EBD671C1F34F00FFF76C
:103D7000C5FF70BD70B504460D461646FFF724FD1D
:103D8000002141EA4401C8B2FFF7EAFCFFF752FD07
:103D900018B1FFF739FD012070BD2846FFF7E0FCA0
:103DA000FFF748FD3046FFF7DBFCFFF743FD18B196
:103DB000FFF72AFD0120EFE7FFF726FD0020EBE7E4
:103DC0000EB5002000900190029012481249086040
:103DD000002111488160017301754FF46021C161B8
:103DE00000200D49486001210B480161FDF74EF9A3
:103DF00008B1FCF743FF0420009001200190072048
:103E0000029069460448FDF789F808B1FCF736FFCF
:103E10000EBD0000002401400C01002000B585B05B
:103E20000020019002900390049000BF3348806905
:103E300040F01000314988610846806900F01000A8
:103E4000009000BF00BF00BF0846806940F020001E
:103E500088610846806900F02000009000BF00BF24
:103E600000BF0846806940F0040088610846806908
:103E700000F00400009000BF00BF00BF084680694A
:103E800040F0080088610846806900F00800009052
:103E900000BF00BF00224FF481511948FDF7F4FD27
:103EA0004FF460400190002002900120039001A98E
:103EB0001448FDF747FC4FF4815001900120029017
:103EC000002003900220049001A90D48FDF73AFC60
:103ED0004FF4807001900C4802900120039001A9DA
:103EE0000748FDF72FFC002203211720FDF75CFE99
:103EF0001720FDF749FE05B000BD0000001002408C
:103F000000080140001001400000211000B595B0EC
:103F1000002011901290139014900F9010901C217B
:103F200008A8FCF718F920216846FCF714F92B487B
:103F30002B490860172048600021294881604EF60F
:103F40005F21C1600021016141618161FEF7E4FBF5
:103F500008B1FCF793FE4FF48050119011A920484E
:103F6000FEF76CFC08B1FCF789FE1D48FEF7BFFFA9
:103F700008B1FCF783FE00200F9010900FA918489D
:103F8000FEF726FB08B1FCF779FE602008900020C0
:103F900009900A900B900C900D900E90042208A9A5
:103FA0000F48FEF722FF08B1FCF768FE00200090E2
:103FB00001900290039004904FF40050059000206F
:103FC000079069460648FEF7C9FA08B1FCF756FEA5
:103FD0000348FEF7B3FE15B000BD0000002C014001
:103FE0003C01002000B589B00020079008901C21FA
:103FF0006846FCF7B0F84FF0804023490860002085
:10400000486000212048816041F61F41C1600021C5
:1040100001618161FEF76BFF08B1FCF72FFE002004
:104020000790089007A91848FEF7D2FA08B1FCF7E4
:1040300025FE602000900020019002900490002254
:1040400069461148FEF7D1FE08B1FCF717FE0422BD
:1040500069460D48FEF7C9FE08B1FCF70FFE0822BD
:1040600069460948FEF7C1FE08B1FCF707FE0C22BD
:1040700069460548FEF7B9FE08B1FCF7FFFD0248A6
:10408000FEF75CFE09B000BD8401002000B58BB0D6
:10409000242102A8FCF75FF8002000900190194845
:1040A00019490860002048600021174881604FF6D8
:1040B000FF71C16000210161816103200290002035
:1040C000039001200490002005900A200690002013
:1040D000079001200890002009900A200A9002A968
:1040E0000948FEF731FC08B1FCF7C8FD002000903C
:1040F000019069460448FEF76BFA08B1FCF7BEFD73
:104100000BB000BD00040040CC01002000B58BB016
:10411000242102A8FCF71FF8002000900190194804
:1041200019490860002048600021174881604FF657
:10413000FF71C160002101618161032002900020B4
:10414000039001200490002005900A200690002092
:10415000079001200890002009900A200A9002A9E7
:104160000948FEF7F1FB08B1FCF788FD002000903C
:10417000019069460448FEF72BFA08B1FCF77EFD72
:104180000BB000BD000800401402002010B50B4821
:104190000B4908604FF4E130486000210848816015
:1041A000C16001610C21416100218161C161FFF7A2
:1041B000E9F808B1FCF762FD10BD000000380140CD
:1041C0005C02002010B50B480B4908604FF4E13049
:1041D0004860002108488160C16001610C21416193
:1041E00000218161C161FFF7CDF808B1FCF746FD00
:1041F00010BD000000480040A402002000BFFEE700
:1042000000BFFEE77047000008B508490968C90803
:104210004FF47A72B1FBF2F14143009100BF00BF4D
:1042200000994A1E00920029F9D108BDB40000206F
:104230007047000010B504460B46002B0CDD1846F5
:1042400001F0C8FA4FF08041C863002001F0C2FAC3
:104250004FF0804148630BE0002001F0BBFA4FF0C3
:104260008041C863184601F0B5FA4FF080414863B9
:10427000002C0CDD204601F0ADFA4FF080410864BF
:10428000002001F0A7FA4FF0804188630BE0002086
:1042900001F0A0FA4FF080410864204601F09AFA3C
:1042A0004FF0804188630148026010BD382C014006
:1042B0002DE9F84F82468B46BAF1160F01DD4FF01B
:1042C000160A1AF1160F01DA6FF0150ABAF1000F8B
:1042D00004D14FF49650CBF8000033E0BAF1000F50
:1042E00018DD504601F076FA0090FCF798F9804608
:1042F0004FF06632144BFCF7A8F806460022134B29
:10430000FBF7FCFF0446FCF7C1F9C0F59650CBF86B
:10431000000017E0504601F05DFA0090FCF77FF9CD
:1043200004464FF06632084BFCF78FF80646002231
:10433000064BFBF7E3FF8046FCF7A8F900F5965023
:10434000CBF80000BDE8F88F66A640400000E03FD3
:1043500010B5FDF7A5FB10BD00B593B0282109A845
:10436000FBF7F9FE142104A8FBF7F5FE00200090EE
:104370000190029003900120099000040A9000200F
:104380000B9001200D9002201090C10311914FF469
:10439000E011129109A8FDF793FE08B1FCF76EFC3D
:1043A0000F20049002200590002006904FF48060BA
:1043B000079000200890022104A8FDF75DFD08B1D8
:1043C000FCF75CFC02200090800302906846FDF739
:1043D000BBFC08B1FCF752FC13B000BD70470000F5
:1043E00010B50248FEF7DFFB10BD00003C010020C5
:1043F00010B50268184B984208D0B0F1804F05D034
:10440000164B984202D0164B984203D122F070020C
:104410004B681A43104B984208D0B0F1804F05D03A
:104420000E4B984202D00E4B984203D122F44072B8
:10443000CB681A4322F080034C6943EA040202600D
:104440008B68C3620B688362034B984201D10B698E
:1044500003630123436110BD002C014000040040B0
:104460000008004030B501F01F05012404FA05F3EF
:10447000046A9C430462046A01F01F0502FA05F510
:104480002C43046230BD30B501F01F05042404FA4A
:1044900005F3046A9C430462046A01F01F0502FAF2
:1044A00005F52C43046230BD30B50C46816821F41B
:1044B0007F4142EA032525432943816030BD0A46F6
:1044C000816821F0700142F0070319438160704751
:1044D00030B5026A056A25F0010505624368846902
:1044E00024F0700424F003040D682C4322F002022F
:1044F0008D682A430D4DA84206D100BF22F0080264
:10450000CD682A4322F00402084DA84207D123F4C3
:10451000807323F400734D692B438D692B434360F3
:1045200084614D684563026230BD0000002C01408B
:1045300030B5026A056A25F0100505624368846992
:1045400024F4E04424F440740D6844EA052422F085
:1045500020028D6842EA05120E4DA84207D100BF25
:1045600022F08002CD6842EA051222F04002094D95
:10457000A84209D123F4806323F400634D6943EA20
:1045800085038D6943EA8503436084614D688563D3
:10459000026230BD002C014030B5026A056A25F484
:1045A000807505624368C46924F0700424F0030434
:1045B0000D682C4322F400728D6842EA05220F4DEB
:1045C000A84207D100BF22F40062CD6842EA05226A
:1045D00022F48062094DA84209D123F4805323F4C8
:1045E00000534D6943EA05138D6943EA051343609F
:1045F000C4614D68C563026230BD0000002C0140FB
:1046000030B5036A056A25F4805505624468C269BD
:1046100022F4E04222F440720D6842EA052223F4BB
:1046200000538D6843EA0533064DA84204D124F4B3
:1046300080444D6944EA85144460C2614D68056454
:10464000036230BD002C014030B50B461446026AAF
:10465000056A25F001050562816921F0F00141EA52
:10466000041122F00A021A438161026230BD30B5A2
:104670000B461446026A056A25F010050562816939
:1046800021F4704141EA043122F0A00242EA03120F
:104690008161026230BD00002DE9F0410446002531
:1046A0002046FCF712F806464FF03332104BFCF769
:1046B0001FF803D30F480068012815D101250020F9
:1046C0000D4908600D4908600D4908600D490C4806
:1046D0000068FFF7EDFD0B480268084801680648CE
:1046E0000068FFF7A7FD00E000252846BDE8F0813F
:1046F0003333264064000020000000200400002026
:104700001C0000201800002070B505466C6A0020CF
:10471000E085E0842046FEF7C1FC70BD00BF00BF0D
:1047200002680C3252E8002F22F4907102680C32B9
:1047300042E80013002BF3D100BF00BF00BF0268A6
:10474000143252E8002F22F001010268143242E8CC
:104750000013002BF3D100BF016B01290ED100BF64
:1047600000BF02680C3252E8002F22F010010268EC
:104770000C3242E80013002BF3D100BF202180F857
:10478000421000210163704710B504462068C068DC
:1047900020F040002168C860202084F841002046B5
:1047A000FEF748FF002010BDF8B5044694F842001B
:1047B000222875D1A068B0F5805F0CD1206950B96E
:1047C0000025A66A20684068C0F308003080A06A0F
:1047D000801CA06215E0A56A0026A068B0F5805F85
:1047E00003D0A06828B9206918B9206840682870EB
:1047F00004E02068406800F07F002870A06A401C38
:10480000A062E08D401E80B2E085002846D120687D
:10481000C06820F020002168C8602068C06820F4CB
:1048200080702168C8602068406920F0010021681C
:104830004861202084F8420000206063206B01283A
:1048400026D10020206300BF00BF21680C3151E851
:10485000001F21F0100021680C3141E80002002AFD
:10486000F3D100BF2068006800F0100010280AD1C2
:1048700000BF002000902068006800902068406819
:10488000009000BF00BFA18D2046FEF706FC02E0AD
:104890002046FEF74DFE0020F8BD01E00020FBE7BA
:1048A0000220F9E770B504462168096921F44051F6
:1048B000E2681143226811612269A16811436269AB
:1048C00041EA02052168C96841F20C62914329431B
:1048D0002268D1602168496921F44071A2691143BD
:1048E000226851612D4A2168914202D1FDF7A0FB57
:1048F00001E0FDF78DFB00EBC00101EB00116268E8
:104900009200B1FBF2F100EBC00202EB001263680F
:104910009B00B2FBF3F26423B2FBF3F202EBC2039F
:1049200003EB0212A1EB8201322202EB011164229D
:10493000B1FBF2F101F0F00100EBC00202EB00125A
:1049400063689B00B2FBF3F26423B2FBF3F201EB6A
:10495000021200EBC00101EB001163689B00B1FB88
:10496000F3F100EBC00303EB00136668B600B3FB82
:10497000F6F36426B3FBF6F303EBC30606EB03136F
:10498000A1EB8301322303EB01116423B1FBF3F1AB
:1049900001F00F0111442268916070BD00380140A0
:1049A00010B5034699629A85DA8500205864222062
:1049B00083F84200186928B11868C06840F4807014
:1049C0001C68E0601868406940F001001C68606184
:1049D0001868C06840F020001C68E060002010BD2E
:1049E000014691F84100212828D18868B0F5805F00
:1049F0000BD1086948B90A6A1088C0F308000B682F
:104A00005860086A801C086205E00B6A581C08623E
:104A100018780B685860C88C401E80B2C88458B99A
:104A20000868C06820F080000B68D8600868C0681B
:104A300040F040000B68D860002070470220FCE77F
:104A400010B50248FEF72CFB10BD00005C020020F0
:104A500000B5002200BF05E00449885C00F014FFA7
:104A6000501CC2B2182AF7DB00BD0000BC000020B9
:104A700000BFFEE72DE9F34F85B08B462A48029030
:104A800000215846FBF780FE47D000210598FBF730
:104A90007BFE42D059460598FBF7F2FB054600F035
:104AA0000BFE04460299FBF76FFE17D8002158460B
:104AB000FBF774FE08D2059800F0FEFD044602994B
:104AC000FBF7DEFB834609E0059800F0F5FD80F07A
:104AD000004420460299FBF7D3FB834659460598CC
:104AE000FBF7CEFB03900398FBF7EFFD06464FF074
:104AF00000420E4BFBF702FC02460B46CDE90001DB
:104B00004FF080400A49FBF712FD044600F0F2FB2B
:104B10008046FBF71DFE824601E04FF0000A50463A
:104B200007B0BDE8F08F0000C5FEB23E3D0AB73FBA
:104B3000E17AC43F2DE9FF5F0446894609EB042072
:104B40000FFA80FA4FF47A709AFBF0F100FB11AB88
:104B50005846FBF764FD07460C4A0D4BFBF775FC06
:104B600005460E464FF47A709AFBF0F73846FBF78D
:104B700056FD2A463346CDE90001FBF7BFFBCDE9E0
:104B80000201FBF7E5FD04B0BDE8F09FFCA9F1D2FE
:104B90004D62503F490050EAC12018BF04204A0D21
:104BA00018BF40F0010040F2FF72B2EB515F08BF46
:104BB00040F00200012808BF052070470248006845
:104BC000C0F30220704700000CED00E010B5002893
:104BD00004DB0A07130E054A135406E00A07140EF5
:104BE000034A00F00F031B1FD45410BD00E400E083
:104BF00018ED00E02DE9F74F144694B00021C4E908
:104C000002111599079121F00045C9498D4206DC32
:104C10001599C4E9000117B00020BDE8F08FC5491F
:104C2000DFF814A3A9423CDD0799C44E0029C44F04
:104C3000C44A1599534619DDFBF701FC554506D0CA
:104C4000C14AC24BFBF7FBFBC4E900010AE04FF08D
:104C5000D352BE4BFBF7F3FB32463B46FBF7EFFB71
:104C6000C4E9000117B00120BDE8F08FFBF746FB57
:104C7000554506D0B44AB54BFBF740FBC4E90001EB
:104C80000AE04FF0D352B14BFBF738FB32463B46BC
:104C9000FBF734FBC4E9000117B04FF0FF30BDE86B
:104CA000F08FAB49A942159978DB21F0004183468A
:104CB0008846A84AA84BFBF7C8FB0022A74BFBF786
:104CC0001DFBFBF7E3FC0990FBF7A9FC06460F462A
:104CD0009C4A5346FBF7B9FB43465A46FBF7B2FBE7
:104CE00080468A46984A994B30463946FBF7ADFBD9
:104CF0002A0D01250B9242465346FBF7A3FB032DD9
:104D0000C4E9000139D00B98C1F30A51401A05EBF0
:104D100045111139814230DA9148C346784400EB9D
:104D20000510CDF80CA00C90D0E900233046394690
:104D3000FBF78BFB02460B460491069058460399FD
:104D4000FBF77DFB80468A4602460B465846039990
:104D5000FBF775FB049B069AFBF771FB83460C98E7
:104D600003913946D0E902233046FBF76EFB5A46E1
:104D7000039BFBF764FB6D1CBDE707980028A2BFEF
:104D8000099817B0BDE8F08F616881F0004161605B
:104D9000099817B04042BDE8F08FFFE784461598A8
:104DA000C1F31301C0F30A50A0F2F5304FEA6018C6
:104DB00000F01F06C6F12000139000200690079017
:104DC00041F4801E05206D4676B1664A08EB00016D
:104DD0007A4452F8213002EB8101B3404A681399BA
:104DE00022FA01F1194305E05F4908EB000279441A
:104DF00051F82210A1FB0E27A1FB0C131A449A4272
:104E000034BF0123002303EB070A05EB8003D3E93A
:104E100001B70F448F4234BF0121002193448B44DA
:104E200011B1934502D903E0934501D2012100E07D
:104E30000021C3E901B7514445F82010011EA0F13B
:104E40000100C1DC0298059F00F10050800F129014
:104E50000298DDE903568000FBF7E1FB8346284614
:104E60000D91FBF7EDFB6FF01D02FBF756FDCDE951
:104E70000E013046FBF7E4FB6FF03D02FBF74DFD02
:104E800080468A463846FBF7DBFB6FF05D02FBF796
:104E900044FD0746424653461191FBF72FFADDE9E0
:104EA0000E23FBF72BFA5A460D9BFBF727FA00253A
:104EB0000E465A4628460D9BFBF7C1FADDE90E2344
:104EC000FBF7BDFA42465346FBF7B9FA3A46119B47
:104ED000FBF7B8FADFF898A0244A5346FBF7B5FA77
:104EE00007468846234A244B31462846FBF7ADFA4D
:104EF0003A464346FBF702FA074688464FF0A84277
:104F0000534631462846FBF7A0FA3A464346FBF79C
:104F1000F5F9159A12F0004F04D0129A81F0004171
:104F200052421292C4E90001129817B0BDE8F08F06
:104F3000FB21E93F7CD90240FB21F93F7370032E2E
:104F40008A19A33B000040543163621A61B4D03D1A
:104F5000FB21394183C8C96D305FE43F0000E03F69
:104F6000580C0000D40B0000B60B0000182D445460
:104F7000FB21F93D3326A611460B113C2DE9F041EA
:104F80004F1E00EBC7010446D1E9000115461E463D
:104F900037F006020DD02A463346FBF756FA7F1E3D
:104FA00004EBC703D3E90023FBF7A8F937F00602A7
:104FB000F1D1022F25D0042F13D0062F18BFBDE842
:104FC000F0812A463346FBF740FAD4E90A23FBF77F
:104FD00095F92A463346FBF738FAD4E90823FBF75C
:104FE0008DF92A463346FBF730FAD4E90623FBF75E
:104FF00085F92A463346FBF728FAD4E90423FBF760
:105000007DF92A463346FBF720FAD4E90223FBF761
:1050100075F92A463346FBF718FAD4E90023BDE8B0
:10502000F041FBF76BB900002DE9F04D04468CB060
:10503000904821F00047164698460D460991874250
:1050400006DA20462946FBF721FB002800F0AE8057
:105050008948B8421CDC09980028BCBF85F000458F
:1050600088F00048854A864B20462946FBF7EAF936
:1050700004460D463246434682488349FBF7DFF932
:1050800022462B46FBF73AF9002604460D46B04669
:1050900022462B4610461946FBF7D7F98B46824627
:1050A00002460B46FBF7D1F90246089077480B46BB
:1050B000009106217844FFF761FFCDE903107448A1
:1050C00006217844009B089AFFF758FF52465B463A
:1050D000FBF7BBF9CDE9051052465B462046294651
:1050E000FBF7B3F907910090DDE90310DDE9053224
:1050F000FBF704F9079B009AFBF7A7F932464346F2
:10510000FBF7FCF852465B46FBF79FF932464346F5
:10511000FBF7F4F880460E465E4A5F4B079900980D
:10512000FBF793F942463346FBF7E8F882468B4695
:1051300022462B46FBF7E2F880464F480E46B8421F
:1051400014985BDCFBF76BFA074642463346059141
:10515000FBF7D4F8CDE90110424633461046194614
:10516000FBF773F9DDE90132FBF7E1F952465B46E3
:10517000FBF765F922462B46FBF764F90122FBF7A2
:10518000CCFB3A46059BFBF75DF904460D460998B2
:10519000022101EAA070C0F10100FBF740FA0CB057
:1051A00022462B46BDE8F04DFBF74FB91498401C42
:1051B000384320430BD01498012812D00CB022465B
:1051C0002B46BDE8F04D00203449FBF7B0B90CB0D8
:1051D00025F000432246BDE8F04D00203049FBF7A2
:1051E000A6B920462946FFF7D5FC042808BF00F0E1
:1051F00063F820460CB02946BDE8F08D012802BFB7
:1052000040460CB0BDE8F08D00270B463A462046DC
:105210002946FBF717F952465B46FBF713F904469C
:105220000D464246334600201C49FBF780F9834671
:105230003A46884633461046FBF707F90022184BDA
:10524000FBF75CF806468A4622462B46384641461E
:10525000FBF7FBF832465346FBF750F85A464346F5
:10526000FBF7F3F80CB03A464346BDE8F04DFBF7C8
:1052700045B800000000303E2894E53F182D445406
:10528000FB21E93F075C143326A6813C8809000016
:10529000AA090000635555555555D53F0000F0BF8C
:1052A0000000F03F0122FBF738BB002213461046F6
:1052B0001146FBF73CB90000024A00201107FBF73A
:1052C0002CBB000001FDFFFF02E008C8121F08C14F
:1052D000002AFAD170477047002001E001C1121F77
:1052E000002AFBD1704700000149086070470000A8
:1052F000B80000202DE9F84F04460D4621F000408B
:1053000000917349814211DC7249884201DC06D167
:105310002CB120462946BDE8F84FFFF7C3BF6E48C1
:10532000002DCCBF6D496E49BDE8F88F6D498142B3
:1053300011DD6D498142D8BF4FF0FF366DDD20464B
:105340002946FFF727FC042808BFFFF7B5FF2046D2
:105350002946BDE8F88F6549654F25F00045814233
:1053600033DD6449814219DD002632464FF0804327
:1053700020462946FAF7C2FF80468A460122204687
:105380002946FBF7CAFA00223B46FBF758F842468B
:105390005346FBF7CCF804460D463EE001260022BA
:1053A000BA463B4620462946FAF7A8FF80460F46F4
:1053B0000022534620462946FBF741F842463B4629
:1053C000FBF7B5F804460D4627E04B4981421BDD4B
:1053D000DFF828A102260022534620462946FBF783
:1053E00034F800223B46FAF789FF80460F46002238
:1053F000534620462946FBF722F842463B46FBF738
:1054000096F804460D4608E0032622462B46002067
:105410003B49FBF78CF804460D4622462B461046C6
:105420001946FBF712F88B46824602460B46FBF7FD
:105430000CF807460246334888460B460621784456
:10544000FFF79CFD52465B46FAF7FFFF82462E4867
:105450008B463A46434605217844FFF78FFD3A468E
:105460004346FAF7F2FF02460B46002E50465946D5
:105470000CDAFAF743FF22462B46FAF7E6FF01B0B3
:1054800022462B46BDE8F04FFAF7DCBFFAF736FFAD
:1054900022462B46FAF7D9FF1C4A7A4402EBC60390
:1054A000D3E90023FAF7CBFF22462B46FAF7C7FFD2
:1054B000174A7A4402EBC603D3E90023FAF7C2FF86
:1054C000009A002AB8BF81F00041BDE8F88F0000C3
:1054D000000010440000F07F182D4454FB21F93FD8
:1054E000FB21F9BF0000DC3F0000203E0000F33F3D
:1054F0000000F03F0000E63F008003400000F83F5E
:105500000000F0BF06050000C404000062040000B3
:105510002A04000070B57B205E4908767D215D4835
:1055200080F82E105C4801685C480068FAF71EFE9F
:1055300006464FF08041FAF7A3FE05465849FAF7B0
:105540006DFE0446FBF789F801B252484183002101
:1055500081835248016850480068FAF759FE0646B0
:105560005049FAF78DFE05464D49FAF757FE0446B5
:10557000FBF773F801B24748C1834B48408840426B
:1055800001B24448418448480188424881844648E1
:1055900081884048C18445484088404201B23D4826
:1055A0000185424801883B4841854148006820B94F
:1055B0003E4881883748818502E000213548818551
:1055C00037493C480068FAF729FE0446FBF745F8DE
:1055D00001B230480184007E2E49087034480078BA
:1055E00048700846408B000A88700846807EC87064
:1055F0000846808B000A08710846007F48710846FB
:10560000C08B000A88710846807FC8710846408CAC
:10561000000A0872084690F8220048720846808CFA
:10562000000A8872084690F82400C8720846C08CA8
:10563000000A0873084690F8260048730846008D53
:10564000000A8873084690F82800C8730846408D01
:10565000000A0874084690F82A0048740846808DAD
:10566000000A8874084690F82C00C8740846008C1C
:10567000000A0875084690F8200048750121162098
:10568000FBF7ECF903498875084690F82E00C875B9
:1056900070BD0000BC0000200C00002008000020AD
:1056A00000007A44EC51383E2A00002024000020FB
:1056B000640000207800002010B504460021204638
:1056C000FBF76CF801D8204610BD84F00040FBE7E2
:1056D00001464A6A10B200224A627047FCF7ECF9B0
:1056E000FEF73AFEFEF79AFBFEF76AFBFEF70EFCAA
:1056F000FEF778FCFEF7CAFCFEF708FDFEF746FD54
:10570000FEF760FD00212848FDF73CFC04212648F7
:10571000FDF738FC08212448FDF734FC0C21224811
:10572000FDF730FC04212148FCF794FF6FF00100E5
:105730001E49096808611D48FDF744F804211C480A
:10574000FDF7CAF904211B48FDF7C6F901221A49E1
:105750001A48FDF7D7FEFEF78AF91948FBF750FB08
:1057600021E04FF400511748FEF768F920B91648B8
:1057700000683230144908604FF480411148FEF748
:105780005DF920B910480068C8380F4908604FF427
:1057900000410C48FEF752F928B90C480C490A6838
:1057A000026089888180DCE7840100203C010020C0
:1057B000CC010020140200207C0000205C020020AC
:1057C0000C01002000100140600000203600002085
:1057D0003C0000200146002901DA484200E008466A
:1057E0007047000010B5164B21F00042012486B02E
:1057F0009A4203DC0022134600941CE0114B9A42AB
:1058000008D140B94FF00100FFF76EFDFFF74DFDE5
:1058100006B010BD03DBFFF745FD06B010BD02AAC0
:10582000FFF7E8F900F00100A4EB40000DF1080CCF
:1058300000909CE80F00FFF7F7FB06B010BD0000DA
:10584000FB21E93F0000F07F70B506460D46144687
:1058500029463046FAF798FF01D2284670BD214606
:105860003046FAF79BFF01D22046F7E73046F5E7CE
:1058700003468B4201DA08467047934201DD104629
:10588000FAE71846F8E700000549086000BF044938
:10589000091F096801F040010029F8D07047000095
:1058A0000438014002030405060708090A0B0C0D21
:1058B0000E0F1010010202030405060708090A0B67
:1058C0000C0D0E0F1010010200000000000000007F
:1058D0000102030406070809000000000102030496
:1058E0004FBB610567ACDD3F182D4454FB21E93FF8
:1058F0009BF681D20B73EF3F182D4454FB21F93FE7
:10590000E2652F227F2B7A3C075C143326A6813C6C
:10591000BDCBF07A8807703C075C143326A6913C17
:10592000C4EB98999999C9BF711623FEC671BCBF83
:105930006D9A74AFF2B0B3BF9AFDDE522DDEADBFEB
:105940002F6C6A2C44B4A2BF0D5555555555D53F03
:10595000FF8300922449C23F6E204CC5CD45B73F1E
:10596000513DD0A0660DB13FEB0D76244B7BA93F96
:1059700011DA22E33AAD903F00004054FB21F93F99
:105980003163621A61B4D03D0000601A61B4D03D49
:105990007370032E8A19A33B0000002E8A19A33BC3
:1059A000C14920259A837B390000000000000000D7
:1059B0006E83F9A22915444ED15727FCC0DD34F57A
:1059C000999562DB4190433CAB6351FE61C5BBDE00
:1059D0003A6E24B7E0D24D42EA2E49061C92D10914
:1059E0001CEB1DFE3EA729B1F53582E88444BB2E91
:1059F00026709CE9417E5FB439D69139F4395383DE
:105A00008B5F849C3B28F9BDFF97F81F0F9805DE3C
:105A10008B112FEF1F6D0A5ACF7E366DB709CB273A
:105A2000663F464F2DEA5F9EC7BA27757BF1E5EBCF
:105A3000F739073DEA92528AB15FFB6B085D8D1F13
:105A40007AFE10111111C13F37D60684F464963FD7
:105A5000280356C9226D6D3F0165F2F2D844433FD9
:105A6000A69237A0887E143F735360DBCB75F3BEDC
:105A7000FE41B31BBAA1AB3F93846EE9E326823F9C
:105A80001583E0FEC8DB573F68108D1AF726303FBC
:105A9000E9A7F0320FB8123FD47ABF74702AFB3EE8
:105AA000C05A000800000020BC000000C8520008D6
:105AB0007C5B0008BC0000203C060000D8520008B7
:105AC00000000000000000000000000000000000D6
:105AD0000000003F0000003FC01200000000000076
